:020000040800F2
:100000000000022035490008A5460008A746000860
:10001000A9460008AB460008AD46000800000000F5
:10002000000000000000000000000000AF460008D3
:10003000B146000800000000B3460008B5460008BD
:100040008549000885490008854900088549000858
:100050008549000885490008854900088549000848
:100060008549000885490008854900088549000838
:100070008549000885490008854900088549000828
:10008000BD46000885490008D54600088549000896
:100090008549000885490008854900088549000808
:1000A00085490008854900088549000885490008F8
:1000B00085490008854900088549000885490008E8
:1000C00085490008854900088549000885490008D8
:1000D00085490008854900088549000885490008C8
:1000E00085490008854900088549000885490008B8
:1000F00085490008854900088549000885490008A8
:100100008549000885490008854900088549000897
:100110008549000885490008E5460008854900082A
:10012000FD46000885490008854900088549000802
:100130008549000885490008854900088549000867
:100140008549000885490008854900088549000857
:100150008549000885490008854900088549000847
:100160008549000885490008854900088549000837
:1001700085490008854900088549000800000000FD
:080180008549000885490008CB
:1001C00010B5054C237833B9044B13B10448AFF391
:1001D00000800123237010BDC00900200000000032
:1001E00044F0000808B5034B1BB103490348AFF3C3
:1001F000008008BD00000000C409002044F0000891
:1002000081F0004102E000BF83F0004330B54FEAC7
:1002100041044FEA430594EA050F08BF90EA020F34
:100220001FBF54EA000C55EA020C7FEA645C7FEAC7
:10023000655C00F0E2804FEA5454D4EB5555B8BFEA
:100240006D420CDD2C4480EA020281EA030382EA5B
:10025000000083EA010180EA020281EA0303362DED
:1002600088BF30BD11F0004F4FEA01314FF4801CC0
:100270004CEA113102D0404261EB410113F0004FD2
:100280004FEA03334CEA133302D0524263EB430389
:1002900094EA050F00F0A780A4F10104D5F1200E27
:1002A0000DDB02FA0EFC22FA05F2801841F1000182
:1002B00003FA0EF2801843FA05F359410EE0A5F156
:1002C00020050EF1200E012A03FA0EFC28BF4CF087
:1002D000020C43FA05F3C01851EBE37101F000453D
:1002E00007D54FF0000EDCF1000C7EEB00006EEB4A
:1002F0000101B1F5801F1BD3B1F5001F0CD34908D4
:100300005FEA30004FEA3C0C04F101044FEA44522A
:1003100012F5800F80F09A80BCF1004F08BF5FEAB1
:10032000500C50F1000041EB045141EA050130BD91
:100330005FEA4C0C404141EB0101013C28BFB1F5A3
:10034000801FE9D291F0000F04BF01460020B1FAEE
:1003500081F308BF2033A3F10B03B3F120020CDAC1
:100360000C3208DD02F1140CC2F10C0201FA0CF09F
:1003700021FA02F10CE002F11402D8BFC2F1200C04
:1003800001FA02F120FA0CFCDCBF41EA0C019040BA
:10039000E41AA2BF01EB0451294330BD6FEA040403
:1003A0001F3C1CDA0C340EDC04F11404C4F12002EE
:1003B00020FA04F001FA02F340EA030021FA04F300
:1003C00045EA030130BDC4F10C04C4F1200220FA57
:1003D00002F001FA04F340EA0300294630BD21FA95
:1003E00004F0294630BD94F0000F83F4801306BF5B
:1003F00081F480110134013D4EE77FEA645C18BF4F
:100400007FEA655C29D094EA050F08BF90EA020FE5
:1004100005D054EA000C04BF1946104630BD91EADD
:10042000030F1EBF0021002030BD5FEA545C05D1E0
:100430004000494128BF41F0004130BD14F580041F
:100440003CBF01F5801130BD01F0004545F0FE4193
:1004500041F470014FF0000030BD7FEA645C1ABFC8
:10046000194610467FEA655C1CBF0B46024650EAFF
:10047000013406BF52EA033591EA030F41F400212B
:1004800030BD00BF90F0000F04BF0021704730B5B1
:100490004FF4806404F132044FF000054FF0000186
:1004A00050E700BF90F0000F04BF0021704730B547
:1004B0004FF4806404F1320410F0004548BF40421C
:1004C0004FF000013EE700BF42004FEAE2014FEA71
:1004D00031014FEA02701FBF12F07F4393F07F4F4C
:1004E00081F06051704732F07F4208BF704793F04F
:1004F0007F4F04BF41F40021704730B54FF4607462
:1005000001F0004521F000411CE700BF50EA010264
:1005100008BF704730B54FF000050AE050EA01020D
:1005200008BF704730B511F0004502D5404261EB7D
:1005300041014FF4806404F132045FEA915C3FF4BE
:10054000D8AE4FF003025FEADC0C18BF03325FEA5B
:10055000DC0C18BF033202EBDC02C2F1200300FA0C
:1005600003FC20FA02F001FA03FE40EA0E0021FA31
:1005700002F11444BDE600BF4A0011D212F5001288
:1005800011D20DD56FF47873B3EB62520ED44FEAEB
:10059000C12343F0004343EA505323FA02F070476B
:1005A0004FF00000704750EA013002D14FF0FF30A9
:1005B00070474FF00000704753B94AB9002908BF8F
:1005C00000281CBF4FF0FF314FF0FF3000F074B92E
:1005D000ADF1080C6DE904CE00F006F8DDF804E09A
:1005E000DDE9022304B070472DE9F047089D044679
:1005F0008E46002B4DD18A42944669D9B2FA82F2D6
:1006000052B101FA02F3C2F1200120FA01F10CFA11
:1006100002FC41EA030E94404FEA1C48210CBEFB49
:10062000F8F61FFA8CF708FB16E341EA034306FBD2
:1006300007F199420AD91CEB030306F1FF3080F061
:100640001F81994240F21C81023E63445B1AA4B2AE
:10065000B3FBF8F008FB103344EA034400FB07F750
:10066000A7420AD91CEB040400F1FF3380F00A8191
:10067000A74240F207816444023840EA0640E41B86
:1006800000261DB1D4400023C5E900433146BDE832
:10069000F0878B4209D9002D00F0EF800026C5E9D4
:1006A000000130463146BDE8F087B3FA83F6002EEC
:1006B0004AD18B4202D3824200F2F980841A61EB64
:1006C000030301209E46002DE0D0C5E9004EDDE782
:1006D00002B9FFDEB2FA82F2002A40F09280A1EB6A
:1006E0000C014FEA1C471FFA8CFE0126200CB1FBBF
:1006F000F7F307FB131140EA01410EFB03F08842B8
:1007000008D91CEB010103F1FF3802D2884200F244
:10071000CB804346091AA4B2B1FBF7F007FB1011D6
:1007200044EA01440EFB00FEA64508D91CEB040474
:1007300000F1FF3102D2A64500F2BB800846A4EBCF
:100740000E0440EA03409CE7C6F12007B34022FABA
:1007500007FC4CEA030C20FA07F401FA06F31C43E9
:10076000F9404FEA1C4900FA06F3B1FBF9F8200CF6
:100770001FFA8CFE09FB181140EA014108FB0EF03C
:10078000884202FA06F20BD91CEB010108F1FF3A8C
:1007900080F08880884240F28580A8F10208614498
:1007A000091AA4B2B1FBF9F009FB101144EA0141A6
:1007B00000FB0EFE8E4508D91CEB010100F1FF3451
:1007C0006CD28E456AD90238614440EA0840A0FBE9
:1007D0000294A1EB0E01A142C846A64656D353D0BF
:1007E0005DB1B3EB080261EB0E0101FA07F722FAE3
:1007F00006F3F1401F43C5E9007100263146BDE80C
:10080000F087C2F12003D8400CFA02FC21FA03F36E
:10081000914001434FEA1C471FFA8CFEB3FBF7F0EF
:1008200007FB10360B0C43EA064300FB0EF69E4214
:1008300004FA02F408D91CEB030300F1FF382FD2AD
:100840009E422DD9023863449B1B89B2B3FBF7F655
:1008500007FB163341EA034106FB0EF38B4208D92E
:100860001CEB010106F1FF3816D28B4214D9023E6F
:100870006144C91A46EA004638E72E46284605E78D
:100880000646E3E61846F8E64B45A9D2B9EB02085E
:1008900064EB0C0E0138A3E74646EAE7204694E7EE
:1008A0004046D1E7D0467BE7023B614432E7304621
:1008B00009E76444023842E7704700BF00000000C7
:1008C00001F0FF01102A2BDB10F0070F08D010F801
:1008D000013B013A8B422DD010F0070F42B3F6D105
:1008E000F0B441EA012141EA014122F007047FF01E
:1008F00000070023F0E80256083C85EA010586EA75
:10090000010685FA47F5A3FA87F586FA47F6A5FAB0
:1009100087F68EB9EED1F0BC01F0FF0102F00702BC
:1009200032B110F8013B013A83EA010313B1F8D167
:100930000020704701387047002D06BF3546033848
:10094000073815F0010F07D1013015F4807F02BF81
:10095000013015F4C03F0130F0BC0138704700BFD2
:10096000844641EA000313F003036DD1403A41D3BA
:1009700051F8043B40F8043B51F8043B40F8043B79
:1009800051F8043B40F8043B51F8043B40F8043B69
:1009900051F8043B40F8043B51F8043B40F8043B59
:1009A00051F8043B40F8043B51F8043B40F8043B49
:1009B00051F8043B40F8043B51F8043B40F8043B39
:1009C00051F8043B40F8043B51F8043B40F8043B29
:1009D00051F8043B40F8043B51F8043B40F8043B19
:1009E00051F8043B40F8043B51F8043B40F8043B09
:1009F000403ABDD2303211D351F8043B40F8043BA9
:100A000051F8043B40F8043B51F8043B40F8043BE8
:100A100051F8043B40F8043B103AEDD20C3205D3B8
:100A200051F8043B40F8043B043AF9D2043208D0B0
:100A3000D2071CBF11F8013B00F8013B01D30B8822
:100A400003806046704700BF082A13D38B078DD000
:100A500010F003038AD0C3F10403D21ADB071CBFD2
:100A600011F8013B00F8013B80D331F8023B20F83C
:100A7000023B7BE7043AD9D3013A11F8013B00F875
:100A8000013BF9D20B7803704B7843708B788370FD
:100A900060467047000000000000000000000000F9
:100AA0000000000000000000000000000000000046
:100AB0000000000000000000000000000000000036
:100AC00090F800F06DE9024520F007016FF0000C8E
:100AD00010F0070491F820F040F049804FF0000436
:100AE0006FF00700D1E9002391F840F000F1080011
:100AF00082FA4CF2A4FA8CF283FA4CF3A2FA8CF349
:100B00004BBBD1E9022382FA4CF200F10800A4FAAF
:100B10008CF283FA4CF3A2FA8CF3E3B9D1E9042303
:100B200082FA4CF200F10800A4FA8CF283FA4CF33A
:100B3000A2FA8CF37BB9D1E9062301F1200182FAF4
:100B40004CF200F10800A4FA8CF283FA4CF3A2FAFA
:100B50008CF3002BC6D0002A04BF04301A4612BA08
:100B6000B2FA82F2FDE8024500EBD2007047D1E90B
:100B7000002304F00305C4F100004FEAC50514F09A
:100B8000040F91F840F00CFA05F562EA05021CBF6B
:100B900063EA050362464FF00004A9E770B54FF021
:100BA000FF0C4CF4E06C1CEA11541DBF1CEA1355F9
:100BB00094EA0C0F95EA0C0F00F0DEF82C4481EA61
:100BC000030621EA4C5123EA4C5350EA013518BF81
:100BD00052EA033541F4801143F4801338D0A0FB6E
:100BE00002CE4FF00005E1FB02E506F00042E0FB1B
:100BF00003E54FF00006E1FB03569CF0000F18BF21
:100C00004EF0010EA4F1FF04B6F5007F64F54074C8
:100C100004D25FEA4E0E6D4146EB060642EAC6215B
:100C200041EA55514FEAC52040EA5E504FEACE2EC8
:100C3000B4F1FD0C88BFBCF5E06F1ED8BEF1004FCB
:100C400008BF5FEA500E50F1000041EB045170BD47
:100C500006F0004646EA010140EA020081EA03018B
:100C6000B4EB5C04C2BFD4EB0C0541EA045170BD87
:100C700041F480114FF0000E013C00F3AB8014F101
:100C8000360FDEBF002001F0004170BDC4F100044A
:100C9000203C35DA0C341BDC04F11404C4F12005CB
:100CA00000FA05F320FA04F001FA05F240EA020026
:100CB00001F0004221F0004110EBD37021FA04F65C
:100CC00042EB06015EEA430E08BF20EAD37070BD16
:100CD000C4F10C04C4F1200500FA04F320FA05F075
:100CE00001FA04F240EA020001F0004110EBD37077
:100CF00041F100015EEA430E08BF20EAD37070BDE7
:100D0000C4F1200500FA05F24EEA020E20FA04F3BF
:100D100001FA05F243EA020321FA04F001F000416E
:100D200021FA04F220EA020000EBD3705EEA430EDF
:100D300008BF20EAD37070BD94F0000F0FD101F00E
:100D40000046400041EB010111F4801F08BF013C47
:100D5000F7D041EA060195F0000F18BF704703F085
:100D60000046520043EB030313F4801F08BF013D0C
:100D7000F7D043EA0603704794EA0C0F0CEA1355C8
:100D800018BF95EA0C0F0CD050EA410618BF52EA82
:100D90004306D1D181EA030101F000414FF0000088
:100DA00070BD50EA410606BF1046194652EA430696
:100DB00019D094EA0C0F02D150EA013613D195EA0A
:100DC0000C0F05D152EA03361CBF104619460AD152
:100DD00081EA030101F0004141F0FE4141F470015C
:100DE0004FF0000070BD41F0FE4141F4780170BD4C
:100DF00070B54FF0FF0C4CF4E06C1CEA11541DBFB1
:100E00001CEA135594EA0C0F95EA0C0F00F0A7F8B2
:100E1000A4EB050481EA030E52EA03354FEA0131DF
:100E200000F088804FEA03334FF0805545EA1313F2
:100E300043EA12634FEA022245EA111545EA1065BA
:100E40004FEA00260EF000419D4208BF964244F151
:100E5000FD0404F5407402D25B084FEA3202B61A70
:100E600065EB03055B084FEA32024FF480104FF444
:100E7000002CB6EB020E75EB030E22BFB61A7546B8
:100E800040EA0C005B084FEA3202B6EB020E75EB4B
:100E9000030E22BFB61A754640EA5C005B084FEAB3
:100EA0003202B6EB020E75EB030E22BFB61A754680
:100EB00040EA9C005B084FEA3202B6EB020E75EB8B
:100EC000030E22BFB61A754640EADC0055EA060E4C
:100ED00018D04FEA051545EA16754FEA06164FEA8F
:100EE000C30343EA52734FEAC2025FEA1C1CC0D13B
:100EF00011F4801F0BD141EA00014FF000004FF0C8
:100F0000004CB6E711F4801F04BF01430020B4F188
:100F1000FD0C88BFBCF5E06F3FF6AFAEB5EB030C40
:100F200004BFB6EB020C5FEA500C50F1000041EB3D
:100F3000045170BD0EF0004E4EEA113114EB5C040A
:100F4000C2BFD4EB0C0541EA045170BD41F48011DD
:100F50004FF0000E013C90E645EA060E8DE60CEAE5
:100F6000135594EA0C0F08BF95EA0C0F3FF43BAF02
:100F700094EA0C0F0AD150EA01347FF434AF95EAB9
:100F80000C0F7FF425AF104619462CE795EA0C0F9D
:100F900006D152EA03353FF4FDAE1046194622E76A
:100FA00050EA410618BF52EA43067FF4C5AE50EA44
:100FB00041047FF40DAF52EA43057FF4EBAE12E734
:100FC0004FF0FF3C06E000BF4FF0010C02E000BF15
:100FD0004FF0010C4DF804CD4FEA410C7FEA6C5CF8
:100FE0004FEA430C18BF7FEA6C5C1BD001B050EA9B
:100FF000410C0CBF52EA430C91EA030F02BF90EA86
:10100000020F0020704710F1000F91EA030F58BF44
:10101000994208BF90422CBFD8176FEAE37040F0A6
:10102000010070474FEA410C7FEA6C5C02D150EA44
:10103000013C07D14FEA430C7FEA6C5CD6D152EAFF
:10104000033CD3D05DF8040B704700BF84461046C4
:1010500062468C461946634600E000BF01B5FFF7C3
:10106000B7FF002848BF10F1000F01BD4DF808ED93
:10107000FFF7F4FF0CBF012000205DF808FB00BF64
:101080004DF808EDFFF7EAFF34BF012000205DF8BE
:1010900008FB00BF4DF808EDFFF7E0FF94BF01200B
:1010A00000205DF808FB00BF4DF808EDFFF7CEFF0C
:1010B00094BF012000205DF808FB00BF4DF808ED4B
:1010C000FFF7C4FF34BF012000205DF808FB00BF1C
:1010D0004FEA410C7FEA6C5C02D150EA013C0AD134
:1010E0004FEA430C7FEA6C5C02D152EA033C02D126
:1010F0004FF0000070474FF0010070474FEA410287
:1011000012F5001215D211D56FF47873B3EB625259
:1011100012D94FEAC12343F0004343EA505311F080
:10112000004F23FA02F018BF404270474FF0000012
:10113000704750EA013005D111F0004008BF6FF050
:10114000004070474FF00000704700BF00B585B009
:10115000002300930193029303931548154A0260FC
:101160004FF480324260836003610122027680F88E
:101170002030C36210498162C360C26180F83020B0
:10118000426103F001FD68B90A2300930123019332
:10119000052302936946064803F086FF28B905B087
:1011A0005DF804FB03F036F9EEE703F033F9F6E7F8
:1011B000DC090020002001400100000F30B589B09B
:1011C000002303930493059306930793026803F1A6
:1011D000804303F590339A4201D009B030BD0446F4
:1011E0000025019503F58C335A6C42F480725A64E1
:1011F0005A6C02F480720192019A02951A6B42F0C5
:1012000004021A631B6B03F004030293029B012385
:1012100003930323049303A9154804F0B7FB15486F
:10122000154B036045608560C5604FF480630361C2
:101230004FF4006343614FF4005383614FF48073B4
:10124000C3614FF480330362456204F015FA58B964
:10125000084BA3639C6300221146122004F004F89B
:10126000122004F039F8B8E703F0D4F8F0E700BF33
:1012700000080240240A00201064024000B583B038
:101280000023009301930C480C4B036004F046F8D4
:1012900058B904230093002201926946064804F0DD
:1012A00022F928B903B05DF804FB03F0B3F8F0E7C6
:1012B00003F0B0F8F6E700BF840A00200074004095
:1012C00030B589B0002303930493059306930793E5
:1012D0000268284B9A4201D009B030BD044600256F
:1012E000019503F5E2331A6C42F000521A641A6C4D
:1012F00002F000520192019A02951A6B42F001022B
:101300001A631B6B03F001030293029B10230393E8
:101310000323049303A9184804F038FB1748184B1B
:1013200003604FF06063436040238360C5604FF407
:10133000806303614FF4006343614FF400538361A2
:101340004FF48073C3614FF400330362456204F0CD
:1013500093F958B9094BA3609C6300220121362000
:1013600003F082FF362003F0B7FFB5E703F052F831
:10137000F0E700BF0074004000000240980A00201F
:101380008860024010B582B000240094124B1A6BA2
:1013900042F400121A631A6B02F400120092009ACF
:1013A00001941A6B42F480021A631B6B03F48003EE
:1013B0000193019B22462146102003F055FF102087
:1013C00003F08AFF22462146382003F04DFF3820E3
:1013D00003F082FF02B010BD003802402DE9F04159
:1013E00086B0002301930293039304930593224B49
:1013F0001B6813B106B0BDE8F0811F4B01221A60D3
:10140000002600961D4B9A6B42F001029A639B6B7B
:1014100003F001030093009B4FF48058CDF8048043
:1014200002270297032504950C24059401A914486A
:1014300004F0ACFA4FF6807301930297039604957B
:10144000059401A90F4804F0A1FA4CF233730193FB
:10145000029703960495059401A90B4804F096FAA7
:10146000CDF80480029703960495059401A90748D6
:1014700004F08CFABEE700BFF80A002000380240F2
:101480000014024000100240000C0240001802400C
:10149000A82303FB00F0800800BF03460138002B9F
:1014A000FAD1704782B0ADF80600BDF806309BB2A5
:1014B000ADF80630BDF806309BB24FF0D842A2F826
:1014C0007E3002B0704782B0ADF80600BDF806303D
:1014D0009BB2ADF80630BDF806309BB24FF0D84253
:1014E000A2F8803002B0704782B04FF0D843B3F812
:1014F00080309BB2ADF80630BDF8060080B202B075
:1015000070474FF0D843A3F87E00A3F880107047CF
:10151000034B1A894FF0D843A3F87E20704700BFD1
:101520004C0B002070B505460C46404B9B8841F69D
:101530006312934217D045F21052934257D03B4E5C
:101540007089FFF7AFFF280AFFF7BDFFE8B2FFF78A
:10155000BAFFB089FFF7A6FF200AFFF7B4FFE0B299
:10156000FFF7B1FF70BD314B9B7953BB2F4B1888F0
:10157000451BADB2013DADB25889FFF793FF002086
:10158000FFF7A1FF0020FFF79EFF280AFFF79BFF50
:10159000E8B2FFF798FF254DA889FFF783FF200ADF
:1015A000FFF791FFE0B2FFF78EFF68880138C0F3C4
:1015B0000F20FFF788FF68880138C0B2FFF783FF6C
:1015C000D0E71A4E7089FFF76DFF280AFFF77BFFFF
:1015D000E8B2FFF778FF30880138C0F30F20FFF73B
:1015E00072FF30880138C0B2FFF76DFFD3E70F4EAE
:1015F0007089FFF757FF280AFFF765FF70890130F0
:1016000080B2FFF74FFFE8B2FFF75DFFB089FFF749
:1016100049FF200AFFF757FFB089013080B2FFF77A
:1016200041FFE0B2FFF74FFF9CE700BF4C0B0020EB
:1016300010B5744B9B79012B10D02BB9714B9A8844
:1016400041F663139A420FD00138062800F28480D5
:10165000DFE800F07472706E6C6A1600694A918857
:1016600041F663129142E8D00728EDD8DFE800F098
:1016700072706C6E06046A68002402E0802400E048
:10168000E024604B9B8845F21052934266D036208E
:1016900049F24132934203D047F28972934201D119
:1016A00044F008042146FFF72CFF564B9B8841F677
:1016B000631293420AD014F0200F52D0514A11887D
:1016C0005288914202D24F480280418045F2105226
:1016D00093424FD04B4C6089FFF7E4FE0020FFF7A8
:1016E000F2FE0020FFF7EFFE20880138C0F30F2044
:1016F000FFF7E9FE20880138C0B2FFF7E4FEA089B9
:10170000FFF7D0FE0020FFF7DEFE0020FFF7DBFE34
:1017100060880138C0F30F20FFF7D5FE60880138DC
:10172000C0B2FFF7D0FE10BDA024AAE76024A8E74E
:101730002024A6E7C024A4E74024A2E78024A0E751
:1017400040249EE7C0249CE720249AE7602498E781
:10175000E02496E7A02494E7002492E74FF4585041
:1017600096E7284A118852889142AFD925480280CD
:101770004180ABE7234C6089FFF794FE0020FFF720
:10178000A2FE6089013080B2FFF78CFE0020FFF7D7
:101790009AFE6089023080B2FFF784FE208801380B
:1017A000C0F30F20FFF78FFE6089033080B2FFF790
:1017B00079FE20880138C0B2FFF785FEA089FFF7C7
:1017C00071FE0020FFF77FFEA089013080B2FFF795
:1017D00069FE0020FFF777FEA089023080B2FFF794
:1017E00061FE60880138C0F30F20FFF76CFEA0890E
:1017F000033080B2FFF756FE60880138C0B2FFF7B1
:1018000062FE90E74C0B002008B5FFF78BFEFFF758
:101810007FFE034B1A884FF0D843A3F8802008BD01
:10182000000000200000000010B50446BE20FFF7B5
:1018300039FE0520FFF747FE2046FEF733FE0CA3D6
:10184000D3E90023FFF7AAF9FEF796FE80B2FFF76F
:101850003AFE0120FFF737FEFF20FFF734FE00209D
:10186000FFF731FE0020FFF72EFE10BDAFF3008022
:10187000666666666666044008B5444B9871002843
:1018800043D1F0221A804FF4A0725A809B8845F20F
:101890001052934212D041F6631293421FD03B4A3A
:1018A0002C2111812A2151812B21918145F2103265
:1018B000934222D00020FFF7BBFE08BD334A4FF40D
:1018C000305111814FF4285151814FF42C519181A5
:1018D0004FF4F07111804FF448715180E6E72B4AC4
:1018E0002C2111812B2151812A2191814FF4F071FA
:1018F00011804FF448715180D8E7244B4FF4A07207
:101900001A804FF4F0725A80D4E7204B4FF4A07243
:101910001A80F0225A809B8845F21052934216D0CA
:1019200041F66312934223D0184A2C2111812A21B7
:1019300051812B21918145F210329342BAD1134B40
:101940004FF4F0721A804FF4A0725A80B2E70F4A37
:101950004FF4305111814FF4285151814FF42C51E3
:1019600091814FF4487111804FF4F0715180E2E79A
:10197000064A2C2111812A2151812B2191814FF47A
:10198000487111804FF4F0715180D4E74C0B002066
:1019900038B505460A4B1A885C8802FB04F400211E
:1019A0000846FFF7BFFDFFF7B3FD002205E0ABB22D
:1019B0004FF0D841A1F880300132A242F7D338BDB0
:1019C0004C0B002010B5D320FFF76CFDFFF78CFD0A
:1019D000714CA080FFF788FDA080FFF785FDA080F7
:1019E0000002A080FFF780FDA388184380B2A0808A
:1019F00049F2413398424FD1674CA188674806F0BD
:101A000065F9A38849F24132934200F0CD8047F254
:101A10008972934200F0DD8145F21032934200F06A
:101A2000AB8245F21052934201F01F8241F66312DD
:101A3000934202F09881584B9B8849F2413293427D
:101A40000BD045F21032934207D045F21052934228
:101A500003D041F66312934210D1514BDA6922F060
:101A60000F02DA61DA6922F47062DA61DA6942F04F
:101A70000302DA61DA6942F40072DA610020FFF7EA
:101A8000FBFE01224FF40041464804F078F84FF67F
:101A9000FF70FFF77DFF10BD0420FFF703FDFFF788
:101AA00023FDA080FFF720FDA080FFF71DFDA08093
:101AB0000002A080FFF718FDA388184380B2A08021
:101AC00048F2525398425ED0334B9A8847F289735A
:101AD0009A4291D0D420FFF7E5FCFFF705FD2E4C8C
:101AE000A080FFF701FDA080FFF7FEFCA0800002B0
:101AF000A080FFF7F9FCA388184380B2A08045F2CC
:101B0000103398423FF478AF4FF45A40FFF7CAFCC5
:101B1000FFF7EAFCA0804FF45B40FFF7C3FCFFF740
:101B2000E3FCA0800002A0804FF45C40FFF7BAFC09
:101B3000FFF7DAFCA388184380B2A080B0F5004F0D
:101B400025D0154B9A8845F210539A423FF454AF72
:101B5000A120FFF7A7FCFFF7C7FC0F4CA080FFF701
:101B6000C3FCA0800002A080FFF7BEFCA388034353
:101B70009BB2A38045F2617293427FF43DAF41F680
:101B80006312A28038E747F28972A2809CE745F28F
:101B90001052A280D5E700BF4C0B002060F0000877
:101BA000000100A000040240CF20FFF77BFC0020D2
:101BB000FFF789FCC120FFF786FC3020FFF783FC8C
:101BC000ED20FFF76FFC6420FFF77DFC0320FFF79B
:101BD0007AFC1220FFF777FC8120FFF774FCE820E5
:101BE000FFF760FC8520FFF76EFC1020FFF76BFC11
:101BF0007A20FFF768FCCB20FFF754FC3920FFF771
:101C000062FC2C20FFF75FFC0020FFF75CFC342017
:101C1000FFF759FC0220FFF756FCF720FFF742FCC4
:101C20002020FFF750FCEA20FFF73CFC0020FFF7E4
:101C30004AFC0020FFF747FCC020FFF733FC1B20C5
:101C4000FFF741FCC120FFF72DFC0120FFF73BFC13
:101C5000C520FFF727FC3020FFF735FC3020FFF7C9
:101C600032FCC720FFF71EFCB720FFF72CFC362004
:101C7000FFF718FC4820FFF726FC3A20FFF712FC7C
:101C80005520FFF720FCB120FFF70CFC0020FFF7E8
:101C90001AFC1A20FFF717FCB620FFF703FC0A20F6
:101CA000FFF711FCA220FFF70EFCF220FFF7FAFB72
:101CB0000020FFF708FC2620FFF7F4FB0120FFF7C8
:101CC00002FCE020FFF7EEFB0F20FFF7FCFB2A20D1
:101CD000FFF7F9FB2820FFF7F6FB0820FFF7F3FBDF
:101CE0000E20FFF7F0FB0820FFF7EDFB5420FFF775
:101CF000EAFBA920FFF7E7FB4320FFF7E4FB0A20FC
:101D0000FFF7E1FB0F20FFF7DEFB0020FFF7DBFB17
:101D10000020FFF7D8FB0020FFF7D5FB0020FFF7DE
:101D2000D2FBE120FFF7BEFB0020FFF7CCFB152024
:101D3000FFF7C9FB1720FFF7C6FB0720FFF7C3FB20
:101D40001120FFF7C0FB0620FFF7BDFB2B20FFF79C
:101D5000BAFB5620FFF7B7FB3C20FFF7B4FB05208A
:101D6000FFF7B1FB1020FFF7AEFB0F20FFF7ABFB37
:101D70003F20FFF7A8FB3F20FFF7A5FB0F20FFF751
:101D8000A2FB2B20FFF78EFB0020FFF79CFB00201F
:101D9000FFF799FB0120FFF796FB3F20FFF793FB2E
:101DA0002A20FFF77FFB0020FFF78DFB0020FFF7C5
:101DB0008AFB0020FFF787FBEF20FFF784FB112051
:101DC000FFF770FB782002F031FE2920FFF76AFB55
:101DD00031E61120FFF766FB782002F027FE36205F
:101DE000FFF760FB0020FFF76EFB3A20FFF75AFB7E
:101DF0000520FFF768FBB220FFF754FB0C20FFF72C
:101E000062FB0C20FFF75FFB0020FFF75CFB332039
:101E1000FFF759FB3320FFF756FBB720FFF742FBD4
:101E20003520FFF750FBBB20FFF73CFB3220FFF7CC
:101E30004AFBC020FFF736FB0C20FFF744FBC22013
:101E4000FFF730FB0120FFF73EFBC320FFF72AFB23
:101E50001020FFF738FBC420FFF724FB2020FFF7FA
:101E600032FBC620FFF71EFB0F20FFF72CFBD02014
:101E7000FFF718FBA420FFF726FBA120FFF723FBA9
:101E8000E020FFF70FFBD020FFF71DFB0020FFF73E
:101E90001AFB0220FFF717FB0720FFF714FB0A20AD
:101EA000FFF711FB2820FFF70EFB3220FFF70BFB9B
:101EB0004420FFF708FB4220FFF705FB0620FFF751
:101EC00002FB0E20FFF7FFFA1220FFF7FCFA1420A6
:101ED000FFF7F9FA1720FFF7F6FAE120FFF7E2FA29
:101EE000D020FFF7F0FA0020FFF7EDFA0220FFF70D
:101EF000EAFA0720FFF7E7FA0A20FFF7E4FA2820BA
:101F0000FFF7E1FA3120FFF7DEFA5420FFF7DBFAA2
:101F10004720FFF7D8FA0E20FFF7D5FA1C20FFF76D
:101F2000D2FA1720FFF7CFFA1B20FFF7CCFA1E20BA
:101F3000FFF7C9FA2A20FFF7B5FA0020FFF7C3FA26
:101F40000020FFF7C0FA0020FFF7BDFAEF20FFF7EF
:101F5000BAFA2B20FFF7A6FA0020FFF7B4FA002008
:101F6000FFF7B1FA0120FFF7AEFA3F20FFF7ABFA17
:101F70002920FFF797FA5EE5ED20FFF793FA01209D
:101F8000FFF7A1FAFE20FFF79EFAEE20FFF78AFA8C
:101F9000DE20FFF798FA2120FFF795FAF120FFF7EE
:101FA00081FA0120FFF78FFADF20FFF77BFA10207C
:101FB000FFF789FAC420FFF775FA8F20FFF783FA3D
:101FC000C620FFF76FFA0020FFF77DFAE220FFF747
:101FD0007AFAE220FFF777FAE220FFF774FABF20DF
:101FE000FFF760FAAA20FFF76EFAB020FFF75AFA5F
:101FF0000D20FFF768FA0020FFF765FA0D20FFF7C4
:1020000062FA0020FFF75FFA1120FFF75CFA002068
:10201000FFF759FA1920FFF756FA0020FFF753FA95
:102020002120FFF750FA0020FFF74DFA2D20FFF78F
:102030004AFA0020FFF747FA3D20FFF744FA002054
:10204000FFF741FA5D20FFF73EFA0020FFF73BFA69
:102050005D20FFF738FA0020FFF735FAB120FFF7CF
:1020600021FA8020FFF72FFA0020FFF72CFA8B20AF
:10207000FFF729FA0020FFF726FA9620FFF723FA48
:102080000020FFF720FAB220FFF70CFA0020FFF73C
:102090001AFA0020FFF717FA0220FFF714FA0020BF
:1020A000FFF711FA0320FFF70EFA0020FFF70BFAF3
:1020B000B320FFF7F7F90020FFF705FA0020FFF73C
:1020C00002FA0020FFF7FFF90020FFF7FCF90020DB
:1020D000FFF7F9F90020FFF7F6F90020FFF7F3F911
:1020E0000020FFF7F0F90020FFF7EDF90020FFF7DF
:1020F000EAF90020FFF7E7F90020FFF7E4F90020F4
:10210000FFF7E1F90020FFF7DEF90020FFF7DBF928
:102110000020FFF7D8F90020FFF7D5F90020FFF7DE
:10212000D2F90020FFF7CFF90020FFF7CCF900200B
:10213000FFF7C9F90020FFF7C6F90020FFF7C3F940
:102140000020FFF7C0F9B420FFF7ACF98B20FFF7B0
:10215000BAF90020FFF7B7F99620FFF7B4F900208D
:10216000FFF7B1F9A120FFF7AEF90020FFF7ABF9B7
:10217000B520FFF797F90220FFF7A5F90020FFF738
:10218000A2F90320FFF79FF90020FFF79CF9042034
:10219000FFF799F90020FFF796F9B620FFF782F9CB
:1021A0000020FFF790F90020FFF78DF9B720FFF727
:1021B00079F90020FFF787F90020FFF784F93F2025
:1021C000FFF781F90020FFF77EF95E20FFF77BF92A
:1021D0000020FFF778F96420FFF775F90020FFF77A
:1021E00072F98C20FFF76FF90020FFF76CF9AC2033
:1021F000FFF769F90020FFF766F9DC20FFF763F9C4
:102200000020FFF760F97020FFF75DF90020FFF76D
:102210005AF99020FFF757F90020FFF754F9EB2007
:10222000FFF751F90020FFF74EF9DC20FFF74BF9DB
:102230000020FFF748F9B820FFF734F90020FFF736
:1022400042F90020FFF73FF90020FFF73CF900209A
:10225000FFF739F90020FFF736F90020FFF733F9CF
:102260000020FFF730F90020FFF72DF9BA20FFF723
:1022700019F92420FFF727F90020FFF724F900209F
:10228000FFF721F90020FFF71EF9C120FFF70AF937
:102290002020FFF718F90020FFF715F95420FFF769
:1022A00012F90020FFF70FF9FF20FFF70CF90020CB
:1022B000FFF709F9C220FFF7F5F80A20FFF703F945
:1022C0000020FFF700F90420FFF7FDF80020FFF7DA
:1022D000FAF8C320FFF7E6F83C20FFF7F4F80020F7
:1022E000FFF7F1F83A20FFF7EEF80020FFF7EBF8E0
:1022F0003920FFF7E8F80020FFF7E5F83720FFF76F
:10230000E2F80020FFF7DFF83C20FFF7DCF80020C0
:10231000FFF7D9F83620FFF7D6F80020FFF7D3F8FB
:102320003220FFF7D0F80020FFF7CDF82F20FFF77D
:10233000CAF80020FFF7C7F82C20FFF7C4F80020E8
:10234000FFF7C1F82920FFF7BEF80020FFF7BBF820
:102350002620FFF7B8F80020FFF7B5F82420FFF794
:10236000B2F80020FFF7AFF82420FFF7ACF8002008
:10237000FFF7A9F82320FFF7A6F80020FFF7A3F83E
:102380003C20FFF7A0F80020FFF79DF83620FFF76C
:102390009AF80020FFF797F83220FFF794F8002012
:1023A000FFF791F82F20FFF78EF80020FFF78BF84A
:1023B0002C20FFF788F80020FFF785F82920FFF789
:1023C00082F80020FFF77FF82620FFF77CF8002036
:1023D000FFF779F82420FFF776F80020FFF773F86D
:1023E0002420FFF770F80020FFF76DF82320FFF797
:1023F0006AF80020FFF767F8C420FFF753F862205F
:10240000FFF761F80020FFF75EF80520FFF75BF8A3
:102410000020FFF758F88420FFF755F80020FFF759
:1024200052F8F020FFF74FF80020FFF74CF8182083
:10243000FFF749F80020FFF746F8A420FFF743F81C
:102440000020FFF740F81820FFF73DF80020FFF7C5
:102450003AF85020FFF737F80020FFF734F80C2047
:10246000FFF731F80020FFF72EF81720FFF72BF8C1
:102470000020FFF728F89520FFF725F80020FFF748
:1024800022F8F320FFF71FF80020FFF71CF8E620E2
:10249000FFF719F80020FFF716F8C520FFF702F83C
:1024A0003220FFF710F80020FFF70DF84420FFF767
:1024B0000AF80020FFF707F86520FFF704F800206E
:1024C000FFF701F87620FEF7FEFF0020FEF7FBFF86
:1024D0008820FEF7F8FF0020FEF7F5FFC620FEF784
:1024E000E1FF2020FEF7EFFF0020FEF7ECFF1720B2
:1024F000FEF7E9FF0020FEF7E6FF0120FEF7E3FF0D
:102500000020FEF7E0FFC720FEF7CCFF0020FEF71B
:10251000DAFF0020FEF7D7FF0020FEF7D4FF0020EF
:10252000FEF7D1FFC820FEF7BDFF0020FEF7CBFF6E
:102530000020FEF7C8FF0020FEF7C5FF0020FEF7D1
:10254000C2FFC920FEF7AEFF0020FEF7BCFF00204F
:10255000FEF7B9FF0020FEF7B6FF0020FEF7B3FF3D
:102560000020FEF7B0FF0020FEF7ADFF0020FEF7D1
:10257000AAFF0020FEF7A7FF0020FEF7A4FF00201F
:10258000FEF7A1FF0020FEF79EFF0020FEF79BFF55
:102590000020FEF798FF0020FEF795FF0020FEF7D1
:1025A00092FF0020FEF78FFFE020FEF77BFF162052
:1025B000FEF789FF0020FEF786FF1C20FEF783FF51
:1025C0000020FEF780FF2120FEF77DFF0020FEF7B0
:1025D0007AFF3620FEF777FF0020FEF774FF4620D3
:1025E000FEF771FF0020FEF76EFF5220FEF76BFF33
:1025F0000020FEF768FF6420FEF765FF0020FEF76D
:1026000062FF7A20FEF75FFF0020FEF75CFF8B2061
:10261000FEF759FF0020FEF756FF9920FEF753FF03
:102620000020FEF750FFA820FEF74DFF0020FEF728
:102630004AFFB920FEF747FF0020FEF744FFC42001
:10264000FEF741FF0020FEF73EFFCA20FEF73BFFEA
:102650000020FEF738FFD220FEF735FF0020FEF7FE
:1026600032FFD920FEF72FFF0020FEF72CFFE020DD
:10267000FEF729FF0020FEF726FFF320FEF723FFD9
:102680000020FEF720FFE120FEF70CFF1620FEF7EA
:102690001AFF0020FEF717FF1C20FEF714FF002092
:1026A000FEF711FF2220FEF70EFF0020FEF70BFFC2
:1026B0003620FEF708FF0020FEF705FF4520FEF755
:1026C00002FF0020FEF7FFFE5220FEF7FCFE002076
:1026D000FEF7F9FE6420FEF7F6FE0020FEF7F3FE9B
:1026E0007A20FEF7F0FE0020FEF7EDFE8B20FEF7CD
:1026F000EAFE0020FEF7E7FE9920FEF7E4FE002048
:10270000FEF7E1FEA820FEF7DEFE0020FEF7DBFE6E
:10271000B920FEF7D8FE0020FEF7D5FEC420FEF754
:10272000D2FE0020FEF7CFFECA20FEF7CCFE00202E
:10273000FEF7C9FED220FEF7C6FE0020FEF7C3FE5C
:10274000D820FEF7C0FE0020FEF7BDFEE020FEF719
:10275000BAFE0020FEF7B7FEF320FEF7B4FE00201D
:10276000FEF7B1FEE220FEF79DFE0520FEF7ABFE70
:102770000020FEF7A8FE0B20FEF7A5FE0020FEF7C6
:10278000A2FE1B20FEF79FFE0020FEF79CFE3420D9
:10279000FEF799FE0020FEF796FE4420FEF793FE1A
:1027A0000020FEF790FE4F20FEF78DFE0020FEF782
:1027B0008AFE6120FEF787FE0020FEF784FE792066
:1027C000FEF781FE0020FEF77EFE8820FEF77BFEEE
:1027D0000020FEF778FE9720FEF775FE0020FEF73A
:1027E00072FEA620FEF76FFE0020FEF76CFEB720FB
:1027F000FEF769FE0020FEF766FEC220FEF763FECC
:102800000020FEF760FEC720FEF75DFE0020FEF709
:102810005AFED120FEF757FE0020FEF754FED620C8
:10282000FEF751FE0020FEF74EFEDD20FEF74BFEC8
:102830000020FEF748FEF320FEF745FE0020FEF7DD
:1028400042FEE320FEF72EFE0520FEF73CFE0020B0
:10285000FEF739FE0A20FEF736FE0020FEF733FEB3
:102860001C20FEF730FE0020FEF72DFE3320FEF781
:102870002AFE0020FEF727FE4420FEF724FE00205B
:10288000FEF721FE5020FEF71EFE0020FEF71BFE85
:102890006220FEF718FE0020FEF715FE7820FEF7F6
:1028A00012FE0020FEF70FFE8820FEF70CFE00202F
:1028B000FEF709FE9720FEF706FE0020FEF703FE56
:1028C000A620FEF700FE0020FEF7FDFDB720FEF774
:1028D000FAFD0020FEF7F7FDC220FEF7F4FD002010
:1028E000FEF7F1FDC720FEF7EEFD0020FEF7EBFD41
:1028F000D120FEF7E8FD0020FEF7E5FDD520FEF72C
:10290000E2FD0020FEF7DFFDDD20FEF7DCFD00200C
:10291000FEF7D9FDF320FEF7D6FD0020FEF7D3FD2C
:10292000E420FEF7BFFD0120FEF7CDFD0020FEF7FD
:10293000CAFD0120FEF7C7FD0020FEF7C4FD0220FE
:10294000FEF7C1FD0020FEF7BEFD2A20FEF7BBFD0D
:102950000020FEF7B8FD3C20FEF7B5FD0020FEF795
:10296000B2FD4B20FEF7AFFD0020FEF7ACFD5D2071
:10297000FEF7A9FD0020FEF7A6FD7420FEF7A3FDDB
:102980000020FEF7A0FD8420FEF79DFD0020FEF74D
:102990009AFD9320FEF797FD0020FEF794FDA220FC
:1029A000FEF791FD0020FEF78EFDB320FEF78BFDB4
:1029B0000020FEF788FDBE20FEF785FD0020FEF713
:1029C00082FDC420FEF77FFD0020FEF77CFDCD20B8
:1029D000FEF779FD0020FEF776FDD320FEF773FDAC
:1029E0000020FEF770FDDD20FEF76DFD0020FEF7F4
:1029F0006AFDF320FEF767FD0020FEF764FDE52089
:102A0000FEF750FD0020FEF75EFD0020FEF75BFDA7
:102A10000020FEF758FD0020FEF755FD0220FEF7CE
:102A200052FD0020FEF74FFD2920FEF74CFD00204F
:102A3000FEF749FD3C20FEF746FD0020FEF743FD72
:102A40004B20FEF740FD0020FEF73DFD5D20FEF728
:102A50003AFD0020FEF737FD7420FEF734FD00201C
:102A6000FEF731FD8420FEF72EFD0020FEF72BFD42
:102A70009320FEF728FD0020FEF725FDA220FEF79B
:102A800022FD0020FEF71FFDB320FEF71CFD0020F5
:102A9000FEF719FDBE20FEF716FD0020FEF713FD20
:102AA000C420FEF710FD0020FEF70DFDCD20FEF73F
:102AB0000AFD0020FEF707FDD320FEF704FD0020ED
:102AC000FEF701FDDC20FEF7FEFC0020FEF7FBFC1C
:102AD000F320FEF7F8FC0020FEF7F5FCE620FEF7F9
:102AE000E1FC1120FEF7EFFC0020FEF7ECFC3420A7
:102AF000FEF7E9FC0020FEF7E6FC5620FEF7E3FCBB
:102B00000020FEF7E0FC7620FEF7DDFC0020FEF75B
:102B1000DAFC7720FEF7D7FC0020FEF7D4FC662015
:102B2000FEF7D1FC0020FEF7CEFC8820FEF7CBFCA0
:102B30000020FEF7C8FC9920FEF7C5FC0020FEF738
:102B4000C2FCBB20FEF7BFFC0020FEF7BCFC9920B6
:102B5000FEF7B9FC0020FEF7B6FC6620FEF7B3FCDA
:102B60000020FEF7B0FC5520FEF7ADFC0020FEF77C
:102B7000AAFC5520FEF7A7FC0020FEF7A4FC452088
:102B8000FEF7A1FC0020FEF79EFC4320FEF79BFC15
:102B90000020FEF798FC4420FEF795FC0020FEF78D
:102BA00092FCE720FEF77EFC3220FEF78CFC002032
:102BB000FEF789FC5520FEF786FC0020FEF783FC1B
:102BC0007620FEF780FC0020FEF77DFC6620FEF7F5
:102BD0007AFC0020FEF777FC6720FEF774FC0020EB
:102BE000FEF771FC6720FEF76EFC0020FEF76BFC21
:102BF0008720FEF768FC0020FEF765FC9920FEF7B1
:102C000062FC0020FEF75FFCBB20FEF75CFC0020AE
:102C1000FEF759FC9920FEF756FC0020FEF753FC06
:102C20007720FEF750FC0020FEF74DFC4420FEF715
:102C30004AFC0020FEF747FC5620FEF744FC00202B
:102C4000FEF741FC2320FEF73EFC0020FEF73BFC94
:102C50003320FEF738FC0020FEF735FC4520FEF758
:102C600032FC0020FEF72FFCE820FEF71BFC0020C2
:102C7000FEF729FC0020FEF726FC9920FEF723FC36
:102C80000020FEF720FC8720FEF71DFC0020FEF749
:102C90001AFC8820FEF717FC0020FEF714FC7720B2
:102CA000FEF711FC0020FEF70EFC6620FEF70BFC81
:102CB0000020FEF708FC8820FEF705FC0020FEF748
:102CC00002FCAA20FEF7FFFB0020FEF7FCFBBB2066
:102CD000FEF7F9FB0020FEF7F6FB9920FEF7F3FB69
:102CE0000020FEF7F0FB6620FEF7EDFB0020FEF76C
:102CF000EAFB5520FEF7E7FB0020FEF7E4FB55203A
:102D0000FEF7E1FB0020FEF7DEFB4420FEF7DBFBD5
:102D10000020FEF7D8FB4420FEF7D5FB0020FEF78D
:102D2000D2FB5520FEF7CFFB0020FEF7CCFBE920BD
:102D3000FEF7B8FBAA20FEF7C6FB0020FEF7C3FB98
:102D40000020FEF7C0FB0020FEF7BDFB0020FEF7D1
:102D5000A9FBAA20FEF7B7FBCF20FEF7A3FB0020BC
:102D6000FEF7B1FB0020FEF7AEFB0020FEF7ABFB49
:102D70000020FEF7A8FB0020FEF7A5FB0020FEF7D1
:102D8000A2FB0020FEF79FFB0020FEF79CFB00202B
:102D9000FEF799FB0020FEF796FB0020FEF793FB61
:102DA0000020FEF790FB0020FEF78DFB0020FEF7D1
:102DB0008AFB0020FEF787FB0020FEF784FB002043
:102DC000FEF781FBF020FEF76DFB0020FEF77BFB9A
:102DD0005020FEF778FB0020FEF775FB0020FEF781
:102DE00072FB0020FEF76FFBF320FEF75BFB002079
:102DF000FEF769FBF920FEF755FB0620FEF763FBA3
:102E00001020FEF760FB2920FEF75DFB0020FEF797
:102E10005AFB3A20FEF746FB5520FEF754FB1120E3
:102E2000FEF740FB642001F001FE2920FEF73AFB8B
:102E30003520FEF737FB0020FEF745FB5120FEF75B
:102E400031FBFF20FEF73FFB5320FEF72BFB2C202E
:102E5000FEF739FB5520FEF725FB8220FEF733FBFA
:102E60002C20FEF71FFBFEF7E6BD55214FF4704006
:102E7000FEF747FBAA214FF20100FEF742FB522169
:102E80004FF20200FEF73DFB08214FF20300FEF770
:102E900038FB01214FF20400FEF733FB0D214FF404
:102EA0003040FEF72EFB0D214BF20100FEF729FB0F
:102EB0000D214BF20200FEF724FB34214FF4364083
:102EC000FEF71FFB34214BF20160FEF71AFB3421A1
:102ED0004BF20260FEF715FB0D214FF43140FEF777
:102EE00010FB0D214BF20110FEF70BFB0D214BF2F5
:102EF0000210FEF706FB34214FF43740FEF701FBCA
:102F000034214BF20170FEF7FCFA34214BF20270CF
:102F1000FEF7F7FA00214FF43240FEF7F2FA0021F3
:102F20004BF20120FEF7EDFA00214BF20220FEF7F2
:102F3000E8FA24214FF43840FEF7E3FA24214BF657
:102F40000100FEF7DEFA24214BF60200FEF7D9FA63
:102F500001214FF43F40FEF7D4FA0F214FF43340E4
:102F6000FEF7CFFA0F214BF20130FEF7CAFA0F211C
:102F70004BF20230FEF7C5FA34214FF43940FEF728
:102F8000C0FA34214BF60110FEF7BBFA34214BF6A0
:102F90000210FEF7B6FA08214FF43540FEF7B1FAF9
:102FA00008214BF20150FEF7ACFA08214BF2025017
:102FB000FEF7A7FA03214FF44240FEF7A2FA2421BC
:102FC0004FF43A40FEF79DFA24214BF60120FEF71C
:102FD00098FA24214BF60220FEF793FA00214FF4D1
:102FE0003C40FEF78EFA78214BF60140FEF789FA55
:102FF00000214BF60240FEF784FA00214FF43D40D9
:10300000FEF77FFA78214BF60150FEF77AFA00219D
:103010004BF60250FEF775FA00214FF43E40FEF7E2
:1030200070FA64214BF60160FEF76BFA00214FF451
:103030005140FEF766FA33214DF20110FEF761FAB6
:1030400000214DF20210FEF75CFA34214DF203101C
:10305000FEF757FA00214DF20410FEF752FA3A211A
:103060004DF20510FEF74DFA00214DF20610FEF765
:1030700048FA4A214DF20710FEF743FA00214DF2BB
:103080000810FEF73EFA5C214DF20910FEF739FAFE
:1030900000214DF20A10FEF734FA81214DF20B1097
:1030A000FEF72FFA00214DF20C10FEF72AFAA621A6
:1030B0004DF20D10FEF725FA00214DF20E10FEF72D
:1030C00020FAE5214DF20F10FEF71BFA01214DF217
:1030D0001010FEF716FA13214DF21110FEF711FA37
:1030E00001214DF21210FEF70CFA54214DF213108B
:1030F000FEF707FA01214DF21410FEF702FA8221C1
:103100004DF21510FEF7FDF901214DF21610FEF7F4
:10311000F8F9CA214DF21710FEF7F3F902214DF22A
:103120001810FEF7EEF900214DF21910FEF7E9F93B
:1031300002214DF21A10FEF7E4F901214DF21B10A5
:10314000FEF7DFF902214DF21C10FEF7DAF9342107
:103150004DF21D10FEF7D5F902214DF21E10FEF7BB
:10316000D0F967214DF21F10FEF7CBF902214DF285
:103170002010FEF7C6F984214DF22110FEF7C1F9A7
:1031800002214DF22210FEF7BCF9A4214DF22310CA
:10319000FEF7B7F902214DF22410FEF7B2F9B7217C
:1031A0004DF22510FEF7ADF902214DF22610FEF783
:1031B000A8F9CF214DF22710FEF7A3F902214DF215
:1031C0002810FEF79EF9DE214DF22910FEF799F93D
:1031D00002214DF22A10FEF794F9F2214DF22B1044
:1031E000FEF78FF902214DF22C10FEF78AF9FE212D
:1031F0004DF22D10FEF785F903214DF22E10FEF74A
:1032000080F910214DF22F10FEF77BF903214DF2CA
:103210003010FEF776F933214DF23110FEF771F9D7
:1032200003214DF23210FEF76CF96D214DF233108F
:10323000FEF767F900214FF45240FEF762F933219F
:103240004DF20120FEF75DF900214DF20220FEF75C
:1032500058F934214DF20320FEF753F900214DF2C5
:103260000420FEF74EF93A214DF20520FEF749F908
:1032700000214DF20620FEF744F94A214DF20720C5
:10328000FEF73FF900214DF20820FEF73AF95C21E4
:103290004DF20920FEF735F900214DF20A20FEF724
:1032A00030F981214DF20B20FEF72BF900214DF270
:1032B0000C20FEF726F9A6214DF20D20FEF721F98C
:1032C00000214DF20E20FEF71CF9E5214DF20F20F2
:1032D000FEF717F901214DF21020FEF712F9132124
:1032E0004DF21120FEF70DF901214DF21220FEF7EB
:1032F00008F954214DF21320FEF703F901214DF294
:103300001420FEF7FEF882214DF21520FEF7F9F8A1
:1033100001214DF21620FEF7F4F8CA214DF21720D4
:10332000FEF7EFF802214DF21820FEF7EAF800212F
:103330004DF21920FEF7E5F802214DF21A20FEF7B2
:10334000E0F801214DF21B20FEF7DBF802214DF2DF
:103350001C20FEF7D6F834214DF21D20FEF7D1F8DF
:1033600002214DF21E20FEF7CCF867214DF21F20FE
:10337000FEF7C7F802214DF22020FEF7C2F88421A3
:103380004DF22120FEF7BDF802214DF22220FEF77A
:10339000B8F8A4214DF22320FEF7B3F802214DF234
:1033A0002420FEF7AEF8B7214DF22520FEF7A9F84C
:1033B00002214DF22620FEF7A4F8CF214DF227205E
:1033C000FEF79FF802214DF22820FEF79AF8DE2141
:1033D0004DF22920FEF795F802214DF22A20FEF742
:1033E00090F8F2214DF22B20FEF78BF802214DF2DE
:1033F0002C20FEF786F8FE214DF22D20FEF781F8F5
:1034000003214DF22E20FEF77CF810214DF22F20E3
:10341000FEF777F803214DF23020FEF772F83321E2
:103420004DF23120FEF76DF803214DF23220FEF708
:1034300068F86D214DF23320FEF763F800214FF458
:103440005340FEF75EF833214DF20130FEF759F894
:1034500000214DF20230FEF754F834214DF20330D2
:10346000FEF74FF800214DF20430FEF74AF83A21FA
:103470004DF20530FEF745F800214DF20630FEF71B
:1034800040F84A214DF20730FEF73BF800214DF29B
:103490000830FEF736F85C214DF20930FEF731F8BE
:1034A00000214DF20A30FEF72CF881214DF20B304D
:1034B000FEF727F800214DF20C30FEF722F8A62186
:1034C0004DF20D30FEF71DF800214DF20E30FEF7E3
:1034D00018F8E5214DF20F30FEF713F801214DF2F7
:1034E0001030FEF70EF813214DF21130FEF709F8F7
:1034F00001214DF21230FEF704F854214DF2133041
:10350000FDF7FFFF01214DF21430FDF7FAFF822194
:103510004DF21530FDF7F5FF01214DF21630FDF7A4
:10352000F0FFCA214DF21730FDF7EBFF02214DF2FB
:103530001830FDF7E6FF00214DF21930FDF7E1FFED
:1035400002214DF21A30FDF7DCFF01214DF21B3054
:10355000FDF7D7FF02214DF21C30FDF7D2FF3421D9
:103560004DF21D30FDF7CDFF02214DF21E30FDF76B
:10357000C8FF67214DF21F30FDF7C3FF02214DF256
:103580002030FDF7BEFF84214DF22130FDF7B9FF59
:1035900002214DF22230FDF7B4FFA4214DF2233079
:1035A000FDF7AFFF02214DF22430FDF7AAFFB7214E
:1035B0004DF22530FDF7A5FF02214DF22630FDF733
:1035C000A0FFCF214DF22730FDF79BFF02214DF2E6
:1035D0002830FDF796FFDE214DF22930FDF791FFEF
:1035E00002214DF22A30FDF78CFFF2214DF22B30F3
:1035F000FDF787FF02214DF22C30FDF782FFFE21FF
:103600004DF22D30FDF77DFF03214DF22E30FDF7F9
:1036100078FF10214DF22F30FDF773FF03214DF29B
:103620003030FDF76EFF33214DF23130FDF769FF89
:1036300003214DF23230FDF764FF6D214DF233303E
:10364000FDF75FFF00214FF45440FDF75AFF33218F
:103650004DF20140FDF755FF00214DF20240FDF70C
:1036600050FF34214DF20340FDF74BFF00214DF296
:103670000440FDF746FF3A214DF20540FDF741FFBA
:1036800000214DF20640FDF73CFF4A214DF2074074
:10369000FDF737FF00214DF20840FDF732FF5C21B6
:1036A0004DF20940FDF72DFF00214DF20A40FDF7D4
:1036B00028FF81214DF20B40FDF723FF00214DF241
:1036C0000C40FDF71EFFA6214DF20D40FDF719FF3E
:1036D00000214DF20E40FDF714FFE5214DF20F40A1
:1036E000FDF70FFF01214DF21040FDF70AFF1321F6
:1036F0004DF21140FDF705FF01214DF21240FDF79B
:1037000000FF54214DF21340FDF7FBFE01214DF265
:103710001440FDF7F6FE82214DF21540FDF7F1FE53
:1037200001214DF21640FDF7ECFECA214DF2174083
:10373000FDF7E7FE02214DF21840FDF7E2FE002101
:103740004DF21940FDF7DDFE02214DF21A40FDF762
:10375000D8FE01214DF21B40FDF7D3FE02214DF2B0
:103760001C40FDF7CEFE34214DF21D40FDF7C9FE91
:1037700002214DF21E40FDF7C4FE67214DF21F40AD
:10378000FDF7BFFE02214DF22040FDF7BAFE842175
:103790004DF22140FDF7B5FE02214DF22240FDF72A
:1037A000B0FEA4214DF22340FDF7ABFE02214DF205
:1037B0002440FDF7A6FEB7214DF22540FDF7A1FEFE
:1037C00002214DF22640FDF79CFECF214DF227400D
:1037D000FDF797FE02214DF22840FDF792FEDE2113
:1037E0004DF22940FDF78DFE02214DF22A40FDF7F2
:1037F00088FEF2214DF22B40FDF783FE02214DF2AF
:103800002C40FDF77EFEFE214DF22D40FDF779FEA6
:1038100003214DF22E40FDF774FE10214DF22F4092
:10382000FDF76FFE03214DF23040FDF76AFE3321B4
:103830004DF23140FDF765FE03214DF23240FDF7B8
:1038400060FE6D214DF23340FDF75BFE00214FF429
:103850005540FDF756FE33214DF20150FDF751FE64
:1038600000214DF20250FDF74CFE34214DF2035081
:10387000FDF747FE00214DF20450FDF742FE3A21CC
:103880004DF20550FDF73DFE00214DF20650FDF7CB
:1038900038FE4A214DF20750FDF733FE00214DF26C
:1038A0000850FDF72EFE5C214DF20950FDF729FE70
:1038B00000214DF20A50FDF724FE81214DF20B50FC
:1038C000FDF71FFE00214DF20C50FDF71AFEA62158
:1038D0004DF20D50FDF715FE00214DF20E50FDF793
:1038E00010FEE5214DF20F50FDF70BFE01214DF2C8
:1038F0001050FDF706FE13214DF21150FDF701FEA9
:1039000001214DF21250FDF7FCFD54214DF21350F0
:10391000FDF7F7FD01214DF21450FDF7F2FD822174
:103920004DF21550FDF7EDFD01214DF21650FDF75A
:10393000E8FDCA214DF21750FDF7E3FD02214DF2DB
:103940001850FDF7DEFD00214DF21950FDF7D9FDAD
:1039500002214DF21A50FDF7D4FD01214DF21B500A
:10396000FDF7CFFD02214DF21C50FDF7CAFD3421B9
:103970004DF21D50FDF7C5FD02214DF21E50FDF721
:10398000C0FD67214DF21F50FDF7BBFD02214DF236
:103990002050FDF7B6FD84214DF22150FDF7B1FD19
:1039A00002214DF22250FDF7ACFDA4214DF223502F
:1039B000FDF7A7FD02214DF22450FDF7A2FDB7212E
:1039C0004DF22550FDF79DFD02214DF22650FDF7E9
:1039D00098FDCF214DF22750FDF793FD02214DF2C6
:1039E0002850FDF78EFDDE214DF22950FDF789FDAF
:1039F00002214DF22A50FDF784FDF2214DF22B50A9
:103A0000FDF77FFD02214DF22C50FDF77AFDFE21DE
:103A10004DF22D50FDF775FD03214DF22E50FDF7AF
:103A200070FD10214DF22F50FDF76BFD03214DF27B
:103A30003050FDF766FD33214DF23150FDF761FD49
:103A400003214DF23250FDF75CFD6D214DF23350F4
:103A5000FDF757FD00214FF45640FDF752FD33218D
:103A60004DF20160FDF74DFD00214DF20260FDF7C2
:103A700048FD34214DF20360FDF743FD00214DF276
:103A80000460FDF73EFD3A214DF20560FDF739FD7A
:103A900000214DF20660FDF734FD4A214DF207602A
:103AA000FDF72FFD00214DF20860FDF72AFD5C2196
:103AB0004DF20960FDF725FD00214DF20A60FDF78A
:103AC00020FD81214DF20B60FDF71BFD00214DF221
:103AD0000C60FDF716FDA6214DF20D60FDF711FDFE
:103AE00000214DF20E60FDF70CFDE5214DF20F6057
:103AF000FDF707FD01214DF21060FDF702FD1321D6
:103B00004DF21160FDF7FDFC01214DF21260FDF751
:103B1000F8FC54214DF21360FDF7F3FC01214DF246
:103B20001460FDF7EEFC82214DF21560FDF7E9FC13
:103B300001214DF21660FDF7E4FCCA214DF2176039
:103B4000FDF7DFFC02214DF21860FDF7DAFC0021E1
:103B50004DF21960FDF7D5FC02214DF21A60FDF718
:103B6000D0FC01214DF21B60FDF7CBFC02214DF290
:103B70001C60FDF7C6FC34214DF21D60FDF7C1FC51
:103B800002214DF21E60FDF7BCFC67214DF21F6063
:103B9000FDF7B7FC02214DF22060FDF7B2FC842155
:103BA0004DF22160FDF7ADFC02214DF22260FDF7E0
:103BB000A8FCA4214DF22360FDF7A3FC02214DF2E5
:103BC0002460FDF79EFCB7214DF22560FDF799FCBE
:103BD00002214DF22660FDF794FCCF214DF22760C3
:103BE000FDF78FFC02214DF22860FDF78AFCDE21F3
:103BF0004DF22960FDF785FC02214DF22A60FDF7A8
:103C000080FCF2214DF22B60FDF77BFC02214DF28E
:103C10002C60FDF776FCFE214DF22D60FDF771FC66
:103C200003214DF22E60FDF76CFC10214DF22F6048
:103C3000FDF767FC03214DF23060FDF762FC332194
:103C40004DF23160FDF75DFC03214DF23260FDF76E
:103C500058FC6D214DF23360FDF753FC55214FF4B4
:103C60007040FDF74EFCAA214FF20100FDF749FC20
:103C700052214FF20200FDF744FC08214FF20300ED
:103C8000FDF73FFC00214FF20400FDF73AFCCC2188
:103C90004FF43140FDF735FC00214BF20110FDF7E8
:103CA00030FC05214FF43640FDF72BFC70214FF41A
:103CB0003740FDF726FC70214BF20170FDF721FC27
:103CC00001214FF43840FDF71CFC03214BF60100A5
:103CD000FDF717FC03214BF60200FDF712FC032150
:103CE0004BF60300FDF70DFC02214FF43C40FDF7BD
:103CF00008FC00214BF60140FDF703FC00214BF6C8
:103D00000240FDF7FEFBD0214FF44940FDF7F9FBDF
:103D100002214CF60110FDF7F4FB50214CF6021085
:103D2000FDF7EFFB50214CF60310FDF7EAFB5021A5
:103D30004CF60410FDF7E5FB00214FF45450FDF75D
:103D4000E0FB55214FF46850FDF7DBFB4FF4885042
:103D5000FDF7A8FB7820FDF79BFB4FF42450FDF7FF
:103D6000A1FBFDF768BEE220FDF79CFB1D20FDF7DF
:103D7000AAFB0220FDF7A7FB0420FDF7A4FB6420AB
:103D8000FDF786FBE020FDF78DFB0120FDF79BFB97
:103D90000A2000F04BFEE020FDF784FB0320FDF736
:103DA00092FB0C2000F042FE0120FDF77BFB0A2075
:103DB00000F03CFEE620FDF775FB2F20FDF783FBAE
:103DC000FF20FDF780FBFF20FDF77DFBB020FDF716
:103DD00069FB2020FDF777FB0020FDF774FB012035
:103DE000FDF771FB40F2DF10FDF76DFB0120FDF7E1
:103DF0006AFB40F23F10FDF766FB0020FDF763FB16
:103E0000B420FDF74FFB0220FDF75DFB40F2DF2001
:103E1000FDF759FB0020FDF756FB2E20FDF753FB65
:103E20000020FDF750FB0020FDF74DFB0020FDF7C3
:103E30004AFB0020FDF747FBB620FDF733FB0120CE
:103E4000FDF741FB4FF4B670FDF73DFB0020FDF799
:103E50003AFB1720FDF737FB1520FDF734FB002058
:103E6000FDF731FB0020FDF72EFBF020FDF71AFBDC
:103E70000320FDF728FB2920FDF714FBD020FDF7D8
:103E800011FB0020FDF71FFBBE20FDF70BFB0520FB
:103E9000FDF719FBFE20FDF716FB0120FDF713FBD4
:103EA0000020FDF710FB0020FDF70DFB0020FDF7C3
:103EB0000AFBB820FDF7F6FA0320FDF704FB01200A
:103EC000FDF701FBBA20FDF7EDFA0120FDF7FBFA43
:103ED0006420FDF7A9FCFDF7AEBD00BF2DE9F04F52
:103EE00083B08046A2EB000A8946A3EB010BBAF12E
:103EF000000F0DDD01220092BBF1000F14DD012344
:103F00000193DA451CDD564600252F462C461BE062
:103F1000BAF1000F05D0A0EB020A4FF0FF32009279
:103F2000EAE7CDF800A0E7E7BBF1000F05D0A1EB71
:103F3000030B4FF0FF330193E3E7CDF804B0E0E764
:103F40005E46E1E70134A4B2731C9C4212DC1FFA06
:103F500089F11FFA88F0FDF757FC57445D44BE42D3
:103F600002DABF1B009B9844AE42EBDAAD1B019B0B
:103F70009944E7E703B0BDE8F08F000010B58EB0BC
:103F800000230793089309930A930B930C930D93C3
:103F900000930193029303930493059306931948A6
:103FA0004FF02042026002F5827242600622826077
:103FB000C3600361102242618361C3610362436293
:103FC0004FF480518162C3624FF4804101634363C7
:103FD00083634364022307930F2408940521099106
:103FE0000B9211230C9301940291049205936A465B
:103FF00007A902F0EFF808B90EB010BD00F00AFAF8
:10400000FAE700BFFC0A002008B5FDF7E7F908BD94
:1040100070B58EB0002409940A940B940C940D94FE
:1040200001943A4B1A6B42F010021A631A6B02F0B9
:1040300010020192019A02941A6B42F080021A63F4
:104040001A6B02F080020292029A03941A6B42F0F9
:1040500004021A631A6B02F004020392039A049496
:104060001A6B42F001021A631A6B02F00102049209
:10407000049A05941A6B42F020021A631A6B02F03C
:1040800020020592059A06941A6B42F002021A6306
:104090001A6B02F002020692069A07941A6B42F01B
:1040A00008021A631A6B02F008020792079A089432
:1040B0001A6B42F040021A631B6B03F04003089333
:1040C000089B134E01224FF40041304601F057FD8A
:1040D0001C2309930A9401250B9509A90D4801F0A9
:1040E00055FC09950A9402230B9309A90A4801F08B
:1040F0004DFC4FF4004309930A950B940C9409A9C5
:10410000304601F043FC0EB070BD00BF00380240E5
:1041100000040240001002400000024000000000C5
:10412000294B1B885BB3012B47D0704707EE904AA1
:10413000F8EEE77A9FED257A67EE877A9FED247A8D
:1041400067EE877A17EE900AFCF7BEF941EC100B88
:1041500009F09AFD51EC100B00221E4BFCF71EFDDE
:1041600017A3D3E90023FCF751F8FCF705FA1A4B23
:1041700023F814000134B4F5806FD7DB10BD10B5FF
:104180000024F8E7144B4FF6FF7123F812100132A8
:10419000B2F5806F13DA322302FB03F35942C3F303
:1041A0000903C1F3090158BF4B42092BEADC0A4B52
:1041B00040F6FF7123F81210E9E70022E8E77047A4
:1041C0000000000000FC9F409433002063141D4356
:1041D0000000803A0000A0409833002008B510B1DC
:1041E000314B01221A70304B1B7813B310212F482A
:1041F00001F0BEFC20B108212C4801F0B9FC60B9E7
:104200000A2000F013FC284B00221A7010212748C6
:1042100001F0AEFCA8B9012012E00421234801F00E
:10422000A7FC0028ECD00121214801F0A1FC0128C5
:10423000E6D010211D4801F09BFC012813D000207E
:1042400008BD0821194801F093FC28B30421174840
:1042500001F08EFC10B30121154801F089FC012802
:104260001ED00020ECE70821104801F081FC012855
:1042700001D00020E4E704210C4801F079FC01287A
:1042800001D00020DCE70121094801F071FC48B9A8
:10429000054B01221A70D3E70220D1E70320CFE7B4
:1042A0000420CDE70020CBE70400002000100240EE
:1042B0000000024000B583B0FFF732FF00210091FB
:1042C0004FF48063034A044801F03AF803B05DF804
:1042D00004FB00BF98330020840A002070470000D0
:1042E00070B501260021084626E007EE906AF8EE38
:1042F000E77A9FED137A67EE877AFCEEE77A17EE9E
:10430000903A9DB20F4B33F8163007EE903AF8EE24
:10431000E77A9FED0D7A67EE877AFCEEE77A17EE83
:10432000903A9CB23C34A4B223462A46FFF7D6FD0D
:104330000136B6B221462846B6F5806FD5D370BD9A
:104340000000A53E802B0020010CC03C10B52DEDD7
:10435000028B002300E00133B3F5007F0FDA284A17
:1043600002EB8302D2ED007A264A92ED007AF4EE57
:10437000C77AF1EE10FAEEDDC2ED007AEBE7214BE1
:10438000D3ED007AF5EE407AF1EE10FA02D14FF05B
:104390007E521A601B4BD3ED007A9FED1B7A87EE9D
:1043A000278A002426E007EE904AF8EEE77A9FED90
:1043B000177A67EE877AB3EE047A77EE877A104B36
:1043C00003EB840393ED007A67EE086A9FED107AA1
:1043D00037EE667AFCEEE77A17EE903A98B2FCEE8A
:1043E000C77A17EE903A9BB202464FF4AF71FFF7CF
:1043F00075FD0134B4F5007FD5DBBDEC028B10BD3B
:104400005C1B00207C2B00200000F0420000163FC7
:104410000000AF4372B6FEE700B595B03022002130
:1044200008A803F001FC002303930493059306936B
:10443000079301931F4A116C41F080511164126C73
:1044400002F080520192019A02931B4A116841F4D2
:1044500080411160126802F480420292029A0222A4
:10446000089201210B9110210C910E920F930823B9
:104470001093A823119312920423139308A801F018
:1044800085FB98B90F23039302230493002305931C
:104490004FF4A05306934FF480530793052103A8CC
:1044A00001F0C2FD20B915B05DF804FBFFF7B2FFC3
:1044B000FFF7B0FF003802400070004038B500F050
:1044C00089FAFFF7A9FFFFF7A3FDFCF75BFFFCF7F5
:1044D0003DFEFCF7D3FE00F0C9F900F07FF9FFF7CD
:1044E0004DFD514C204600F07BFB4FF480624F495C
:1044F000204600F01DFC4E4801F098FEFFF7DAFE62
:10450000322000F093FAFDF75DFA4FF6FF70FDF7E9
:104510003FFA0022474B1A6001234FF4806146485E
:1045200003F01AF84FF48061444802F073FB6EE028
:104530003E4A32F8132007EE902AF8EE677A404A96
:1045400002EB8302C2ED007A0133B3F5806FEFDB3B
:104550003C4C002322463A49384802F03FFCD4ED57
:10456000007AF0EEE77AC4ED007A012417E06300E8
:10457000344D05EBC40292ED000A013305EB8303D1
:10458000D3ED007A20EE000A67EEA77A30EE270A14
:1045900009F0C2FB05EB840585ED000A0134B4F592
:1045A000007FE4DB284C2346284A40F2FF312848AC
:1045B00002F0FCF92168274803F088FBD4ED007A6B
:1045C000F8EE677A9FED247A67EE877A9FED237A7B
:1045D00067EE877A17EE900AFBF776FF02460B46E6
:1045E0001F4803F073FBFFF7B1FE0020FFF7F6FD55
:1045F0001C4B187001280ED0022810D0322000F079
:1046000015FAFFF78DFD4FF6FF70FDF7C1F9FFF7C3
:1046100067FE002399E7144B01221A80EEE7124B44
:1046200000221A80EAE700BFDC090020802B00206E
:104630009C3B002000000020803300205C2B0020E9
:104640005C0B00205C1B0020782B00207C2B0020C2
:10465000601B00206CF0000880B824480000803AFD
:1046600088F00008742B00209433002082B00021D1
:1046700000910B4B5A6C42F480425A645A6C02F41B
:1046800080420092009A01911A6C42F080521A64A2
:104690001B6C03F080530193019B02B0704700BF75
:1046A00000380240FEE7FEE7FEE7FEE7FEE7704760
:1046B0007047704708B500F0A7F908BD08B5034872
:1046C00001F076F8024B01221A7008BD980A00200A
:1046D0005A0B002008B5024800F000FC08BD00BFDE
:1046E000DC09002008B5034800F0C5FE024801F0CF
:1046F000E6FD08BD840A00209C3B002008B5024866
:1047000001F056F808BD00BF240A002001207047C0
:1047100008B503F05FFA162303604FF0FF3008BDC1
:1047200008B54FF0FF31FFF7F3FFFEE770B50C4619
:104730001646002506E0AFF30080214601F8010B84
:1047400001350C46B542F6DB304670BD70B50C46FF
:104750001646002504E014F8010B00F0DBF80135E3
:10476000B542F8DB304670BD4FF0FF3070474FF474
:1047700000534B60002070470120704700207047B5
:1047800010B503460C4A0D490D48006840B10C486D
:1047900000680344521A934206D8094A136010BDB8
:1047A0000748084C0460F2E703F014FA0C23036096
:1047B0004FF0FF30F3E700BF0000022000040000CC
:1047C000983B0020783C0020034AD2F8883043F41C
:1047D0007003C2F88830704700ED00E000B583B088
:1047E0000023009301930F480F4A02605322426056
:1047F00083603123C3608023836101F081FE58B957
:1048000020230093002301936946064801F0A4FE8B
:1048100028B903B05DF804FBFFF7FCFDF0E7FFF7F4
:10482000F9FDF6E79C3B00200010004002680E4BAB
:104830009A4200D0704700B583B00022019203F580
:104840000A33196C41F0100119641B6C03F010035A
:104850000193019B0121362000F006FD362000F077
:104860003BFD03B05DF804FB0010004008B50A48AA
:104870000A4B03604FF4E133436000238360C3605D
:1048800003610C2242618361C36101F079FF00B9C9
:1048900008BDFFF7BFFDFBE7E43B0020001001402F
:1048A00000B589B0002303930493059306930793FF
:1048B000026803F1804303F588339A4202D009B0BD
:1048C0005DF804FB0021019103F594335A6C42F02A
:1048D00010025A645A6C02F010020192019A02917D
:1048E0001A6B42F001021A631B6B03F0010302937F
:1048F000029B4FF4C06303930223049303230693A4
:104900000723079303A9024801F040F8D7E700BF47
:104910000000024000B583B001904FF6FF73012202
:1049200001A9034801F05BFF019803B05DF804FBA7
:10493000E43B0020DFF834D00D480E490E4A002336
:1049400002E0D458C4500433C4188C42F9D30B4A43
:104950000B4C002301E013600432A242FBD3FFF7AB
:1049600033FF03F03DF9FFF7A9FD70470000022077
:1049700000000020C00900209CAE0208C0090020F1
:10498000743C0020FEE7000010B504460E4B18787A
:104990004FF47A73B3FBF0F30C4A1068B0FBF3F0FA
:1049A00000F0A8FC68B90F2C01D901200AE0002210
:1049B00021464FF0FF3000F057FC054B1C600020F3
:1049C00000E0012010BD00BF0C0000200800002006
:1049D0001000002008B50B4B1A6842F400721A60F0
:1049E0001A6842F480621A601A6842F480721A608F
:1049F000032000F027FC0F20FFF7C6FFFFF736FE6D
:104A0000002008BD003C0240034A1168034B1B789C
:104A10000B441360704700BF283C00200C000020AE
:104A2000014B1868704700BF283C002038B5044689
:104A3000FFF7F6FF0546B4F1FF3F02D0044B1B78A9
:104A40001C44FFF7EDFF401BA042FAD338BD00BF66
:104A50000C0000204A4B5A6822F440325A605A68CF
:104A600041680A435A600268536823F480735360B4
:104A700002685368016943EA01235360026853687E
:104A800023F0407353600268536881680B4353609E
:104A90000268936823F40063936002689368C168B6
:104AA0000B439360826A374B9A4257D002689368EF
:104AB00023F07063936002689368816A0B4393608C
:104AC0000268936823F04053936002689368C16A58
:104AD0000B4393600268936823F0020393600268BB
:104AE0009368017E43EA4103936090F82030002BE5
:104AF0003FD00268536843F4006353600268536810
:104B000023F46043536001684B68426A013A43EA08
:104B100042334B600268D36A23F47003D3620168A6
:104B2000CB6AC269013A43EA0253CB6202689368D6
:104B300023F4007393600268936890F8301043EA9E
:104B4000412393600268936823F480639360026852
:104B50009368416943EA81239360704702689368D0
:104B600023F0706393600268936823F0405393606E
:104B7000B0E70268536823F400635360CAE700BFDC
:104B8000002301400100000F38B310B50446036C48
:104B900043B1236C13F0100F0BD00120002384F8D5
:104BA0003C3010BDFCF70AFB0023636484F83C3002
:104BB000EFE7236C23F4885323F0020343F002034E
:104BC00023642046FFF746FF00206064236C23F037
:104BD000030343F001032364E0E701207047000072
:104BE00082B00023019390F83C30012B00F09080BC
:104BF000012380F83C3003689A6812F0010F13D14A
:104C00009A6842F001029A60444B1B68444AA2FB36
:104C100003239B0C03EB4303019302E0019B013B45
:104C20000193019B002BF9D10268936813F0010FE7
:104C300063D0036C23F4E06323F0010343F4807337
:104C40000364536813F4806F05D0036C23F440535E
:104C500043F480530364036C13F4805F22D0436CED
:104C600023F006034364002380F83C306FF02203F6
:104C700013600268536843F0806343F0200353607D
:104C8000284B5B6813F01F0F27D10368264A934215
:104C900011D002F58072934207D0244A934214D077
:104CA000002033E000234364DDE702F50072526820
:104CB00012F01F0FF1D19A6812F0405F2AD19A6862
:104CC00042F080429A60002020E002F58072526833
:104CD00012F0100FEFD0002018E00368124A934240
:104CE00001D0002012E09A6812F0405F14D19A6857
:104CF00042F080429A60002008E0036C43F0100309
:104D00000364436C43F001034364002002B0704726
:104D10000220FBE70020F9E70020F7E70800002069
:104D200083DE1B430023014000200140002201409C
:104D300010B582B013460022019290F83C20012A5F
:104D400000F0AE800446012280F83C2002689068A2
:104D500010F0010F13D1906840F001009060534AA9
:104D60001068534AA2FB0020800C00EB4000019029
:104D700002E001980138019001980028F9D12268D9
:104D8000906810F4807F03D0906820F48070906069
:104D90002268906810F0010F77D0206C20F4E0605A
:104DA00020F0010040F480702064526812F4806F9B
:104DB00005D0226C22F4405242F480522264226CCC
:104DC00012F4805F36D0626C22F006026264002228
:104DD00084F83C20A26B3748D063A26B364810643D
:104DE000A26B3648D06422686FF022001060206801
:104DF000426842F0806242602068826842F48072B9
:104E0000826020680A4600F14C01A06B00F09AFC19
:104E10002B4B5B6813F01F0F27D12368294A93425D
:104E200011D002F58072934207D0274A934214D0E2
:104E3000002033E000226264C9E702F50072526884
:104E400012F01F0FF1D19A6812F0405F2AD19A68D0
:104E500042F080429A60002020E002F580725268A1
:104E600012F0100FEFD0002018E02368154A93428B
:104E700001D0002012E09A6812F0405F14D19A68C5
:104E800042F080429A60002008E0236C43F0100357
:104E90002364636C43F001036364002002B010BD1F
:104EA0000220FBE70020F9E70020F7E708000020D8
:104EB00083DE1B4335500008CF4E00081F5000080A
:104EC000002301400020014000220140704708B546
:104ED000806BFFF7FBFF08BD7047704770B5044655
:104EE00003681E685D6816F0020F2FD005F02002DF
:104EF00062B3026C12F0100F03D1026C42F4007224
:104F000002649A6812F0405F19D1227EBAB9DA6A57
:104F100012F4700F03D09A6812F4806F0FD15A68A0
:104F200022F020025A60236C23F480732364236CE4
:104F300013F4805F03D1236C43F001032364204604
:104F4000FFF7CCF923686FF012021A6005F08003B6
:104F500016F0040F37D0002B35D0236C13F0100F50
:104F600003D1236C43F40053236423689A6812F43A
:104F7000401F21D19A6B12F4401F03D09A6812F49B
:104F8000806F19D15A6812F4806F15D19A6812F0A7
:104F9000405F11D1227E7AB95A6822F080025A60AD
:104FA000236C23F480532364236C13F4807F03D198
:104FB000236C43F001032364204600F041F9236889
:104FC0006FF00C021A6005F0400316F0010F05D0D7
:104FD00023B123681B6813F0010F06D105F080652B
:104FE00016F0200F00D065B970BD236C43F48033F8
:104FF00023642046FFF770FF23686FF001021A60F8
:10500000ECE7636C43F00203636423686FF02005F0
:105010001D602046FFF761FF23681D60E4E708B5C7
:10502000806B40230364436C43F004034364FFF745
:1050300054FF08BD08B50346806B026C12F0500F98
:1050400025D1036C43F40073036403689A6812F07B
:10505000405F19D1027EBAB9DA6A12F4700F03D038
:105060009A6812F4806F0FD15A6822F020025A60B9
:10507000036C23F480730364036C13F4805F03D127
:10508000036C43F001030364FFF728F908BD026CC9
:1050900012F0100F04D1826BD26C18469047F5E7DE
:1050A000FFF71BFFF2E7000030B482B0002301934A
:1050B00090F83C30012B00F0BB80012380F83C309D
:1050C0000B68092B41D90468E2689BB203EB4303E8
:1050D0001E3B4FF0070C0CFA03F322EA0303E360D4
:1050E0000468E2680B8803EB43031E3B8D6805FAF6
:1050F00003F31343E3604B68062B3DD80468626BEF
:1051000003EB8303053B4FF01F0C0CFA03F322EA79
:10511000030363630468626B4B6803EB8303053B23
:10512000B1F800C00CFA03F3134363630268414B08
:105130009A4251D002683F4B9A4256D0002380F8E1
:105140003C30184602B030BC7047046822699BB2FC
:1051500003EB43034FF0070C0CFA03F322EA0303BB
:105160002361046822690B8803EB43038D6805FA09
:1051700003F313432361BEE70C2B16D805682A6B93
:1051800003EB8303233B1F2404FA03F322EA030304
:105190002B6305682A6B4B6803EB8303233B0C8866
:1051A00004FA03F313432B63C0E70568EA6A03EBD1
:1051B0008303413B1F2404FA03F322EA0303EB6257
:1051C0000568EA6A4B6803EB8303413B0C8804FAE9
:1051D00003F31343EB62A9E70B68122BAAD1164A1B
:1051E000536843F480035360A4E70B68103B012B22
:1051F000A4D8114A536843F4000353600B68102B82
:105200009CD10E4B1B6802F1467202F52E3202F25F
:105210008332A2FB03239B0C03EB83035B0001930C
:1052200002E0019B013B0193019B002BF9D185E733
:10523000022087E7002001400023014008000020F1
:1052400070470000074AD36823F4E0631B041B0C7B
:10525000000200F4E060034343F0BF6343F4003313
:10526000D360704700ED00E000B5194BDB68C3F375
:105270000223C3F1070CBCF1040F28BF4FF0040C4C
:1052800003F1040EBEF1060F18D9033B4FF0FF3EA9
:105290000EFA0CFC21EA0C0199400EFA03F322EA03
:1052A0000303194300280BDB0901C9B200F1604078
:1052B00000F5614080F800135DF804FB0023E5E78A
:1052C00000F00F000901C9B2024B1954F4E700BF06
:1052D00000ED00E014ED00E0002807DB00F01F0205
:1052E000400901239340024A42F82030704700BF32
:1052F00000E100E00138B0F1807F0BD24FF0E023F5
:105300005861054AF02182F8231000209861072295
:105310001A6170470120704700ED00E070B110B5D0
:105320000446037933B10223237100202061012355
:10533000237110BD4371FBF7C3FFF4E701207047F1
:1053400070B504460D461146049A4079012866D08E
:105350000120607102202071002D34D1A068314EEF
:10536000C663A068304E0664A068304EC6642668E6
:10537000306840F480503060042A1ED0082A1FD0C4
:10538000C2B12A46002D3CD12668306840F4005056
:105390003060A06800F0D6F900236371002839D18D
:1053A0002268136805F01005012101FA05F51D4377
:1053B000156070BD22680832E4E722680C32E1E72C
:1053C00022681032DEE7E068194EC663E068194EC5
:1053D0000664E068184EC6642668306840F0805065
:1053E0003060042A07D0082A08D00AB10022C9E791
:1053F00022681432C6E722681832C3E722681C32DA
:10540000C0E72668306840F000503060E06800F087
:1054100099F9C1E7236943F004032361C9E7022036
:10542000C7E700BF3F540008515400085D5400080E
:1054300045550008555500085F550008704710B5E0
:10544000846B2046FFF7FAFF0123237110BD7047DC
:1054500008B5806BFFF7FBFF08BD704710B5846B84
:10546000236943F0040323612046FFF7F6FF01237D
:10547000237110BD704710B5044603681A6812F412
:10548000005F03D05A6B12F4005F09D123681A68D9
:1054900012F0005F03D05A6B12F0005F11D110BD03
:1054A00004220271026942F0010202614FF40052CB
:1054B0005A630268136823F480531360FFF7DAFF1E
:1054C000E4E704222271226942F0020222614FF0D5
:1054D00000525A632268136823F0805313602046F9
:1054E00000F02FF8DBE74379012B25D010B54FF002
:1054F000010E80F805E0022303710468236802F0BE
:10550000100240F6FE7C0CFA02FC23EA0C0C0B683D
:1055100049680B43934043EA0C0323600468236803
:10552000C02101FA02F223EA0202226080F804E0BC
:1055300000234371184610BD022070477047704722
:105540007047704710B5846B2046FFF7F7FF0123C3
:10555000237110BD08B5806BFFF7F1FF08BD10B5D2
:10556000846B236943F0040323612046FFF7E8FFBF
:105570000123237110BD30B405682C6824F4802405
:105580002C60046863608368402B05D003689960D1
:105590000368DA6030BC704703689A600368D960BA
:1055A000F8E7000010B40368D9B210390C4AA2FB26
:1055B000014212090B4CA25CC2655F2909D923F490
:1055C0007F7323F0030304338365806D5DF8044B20
:1055D000704723F47F7323F003038365F5E700BF6F
:1055E000ABAAAAAAC0F00008836A826992B9012B0B
:1055F0000AD0022B02D00BB100207047C36A13F00F
:10560000807F28D100207047C36AB3F1C07F24D0C7
:1056100000207047B2F5005F09D0022B25D9032B7B
:1056200025D1C36A13F0807F23D100207047032B5C
:1056300003D8DFE803F01404140A00207047C36A9B
:1056400013F0807F0DD100207047C36AB3F1C07F93
:1056500009D00020704701207047012070470120C9
:1056600070470120704701207047012070470020DB
:10567000704701207047000070B50446FFF7D0F96D
:10568000002C5BD00546022384F83530002384F8D3
:1056900034302268136823F00103136023681A680A
:1056A00012F0010F0AD0FFF7BBF9431B052BF5D908
:1056B00020236365032084F8350070BD1A682048F4
:1056C00010406168A2680A43E1680A4321690A43FD
:1056D00061690A43A1690A43E1690A43216A0A43ED
:1056E0000243616A04291ED01A602668756925F094
:1056F0000705636A1D43042B07D1A36A1D43E36AB0
:105700001BB12046FFF770FF90B975612046FFF787
:1057100049FFE26D3F2393408360002060650123D1
:1057200084F83530C9E7E16A206B01430A43DBE7BF
:1057300040236365012084F83500BEE70120BCE703
:105740003F8010F038B50446856D90F8340001288C
:105750002BD0012084F8340094F83500C0B2012821
:1057600004D0002384F83430022038BD022084F8AD
:105770003500002060652046FFF7FDFEE26D3F2307
:105780009340AB602268136843F016031360236CE8
:1057900023B12268136843F008031360226813687A
:1057A00043F0010313600020DFE70220DDE7000083
:1057B000F0B583B0044600230193724B1D68724B11
:1057C000A3FB0535AD0A876D3E68C26D0823934083
:1057D000334210D003681A6812F0040F0BD01A6815
:1057E00022F004021A60C26D08239340BB60436D2F
:1057F00043F001034365E26D01239340334209D036
:105800002268526912F0800F04D0BB60636D43F0D0
:1058100002036365E26D04239340334209D022689A
:10582000126812F0020F04D0BB60636D43F00403F2
:105830006365E26D10239340334224D022681268DE
:1058400012F0080F1FD0BB6023681A6812F4802F73
:105850000DD01B6813F4002F04D1236C9BB120469C
:10586000984710E0A36C73B1204698470BE01A6884
:1058700012F4807F03D11A6822F008021A60236CA8
:105880000BB120469847E26D20239340334255D018
:105890002268126812F0100F50D0BB6094F83530B7
:1058A000DBB2052B0ED023681A6812F4802F33D098
:1058B0001B6813F4002F2AD1636C002B3ED02046C6
:1058C00098473BE02268136823F0160313602268B0
:1058D000536923F080035361236CA3B122681368DA
:1058E00023F008031360E26D3F239340BB60012364
:1058F00084F83530002384F83430236D002B3FD0FA
:10590000204698473CE0A36C002BE7D1EBE7E36B24
:10591000A3B12046984711E01A6812F4807F09D19C
:105920001A6822F010021A60012384F8353000232F
:1059300084F83430E36B0BB120469847636DFBB1BC
:10594000636D13F0010F17D0052384F835302268FA
:10595000136823F001031360019B01330193AB42F1
:1059600004D823681B6813F0010FF5D1012384F8D4
:105970003530002384F83430E36C0BB1204698476F
:1059800003B0F0BD08000020B5814E1B00230F2B93
:1059900000F2E48070B582B060E085685E000324A8
:1059A000B44025EA0405CC68B4402C4384604568C3
:1059B00025EA02054C68C4F300129A402A4342606B
:1059C0005AE0DC08083450F8246003F00702950020
:1059D0000F22AA4026EA020E0A69AA4042EA0E02F3
:1059E00040F824205CE0072200E0002202FA0EF2D8
:1059F0002A4302345A4D45F824205A4A94686FEAE3
:105A00000C0224EA0C054E6816F4801F01D04CEA03
:105A10000405544CA560E46802EA04054E6816F4D7
:105A2000001F01D04CEA04054E4CE560646802EAB0
:105A300004054E6816F4003F01D04CEA0405494CB9
:105A40006560246822404D6815F4803F01D04CEA1F
:105A50000402444C226001330F2B7DD801229A406E
:105A60000C6804EA020C32EA0404F4D14C6804F035
:105A70000304013C012C90D94A6802F00302032A76
:105A800009D0C4685D000322AA4024EA02048A689F
:105A9000AA402243C2604A6802F00302022A90D060
:105AA00004684FEA430E032202FA0EF224EA0204CB
:105AB0004A6802F0030202FA0EF2224302604A68C8
:105AC00012F4403FC7D000220192274A546C44F49C
:105AD00080445464526C02F480420192019A9C0802
:105AE000A51C1F4A52F8255003F003024FEA820E0C
:105AF0000F2202FA0EF225EA02051C4A90423FF4F8
:105B000074AF02F5806290421AD002F58062904232
