:020000040800F2
:1000000000000220C14B0008814800088348000816
:10001000854800088748000889480008000000005B
:100020000000000000000000000000008B480008F5
:100030008D480008000000008F4800089148000823
:10004000114C0008114C0008114C0008114C00081C
:10005000114C0008114C0008114C0008114C00080C
:10006000114C0008114C0008114C0008114C0008FC
:10007000114C0008114C0008114C0008114C0008EC
:1000800099480008114C0008A9480008114C0008C4
:10009000114C0008114C0008114C0008114C0008CC
:1000A000114C0008114C0008114C0008114C0008BC
:1000B000114C0008B9480008114C0008114C000808
:1000C000114C0008114C0008114C0008114C00089C
:1000D000114C0008114C0008114C0008114C00088C
:1000E000114C0008114C0008114C0008114C00087C
:1000F000114C0008114C0008114C0008114C00086C
:10010000114C0008114C0008114C0008114C00085B
:10011000114C0008114C0008C9480008114C000897
:10012000E1480008114C0008114C0008114C00086F
:10013000114C0008114C0008114C0008114C00082B
:10014000114C0008114C0008114C0008114C00081B
:10015000114C0008114C0008114C0008114C00080B
:10016000114C0008114C0008114C0008114C0008FB
:10017000114C0008114C0008114C00080000000050
:08018000114C0008114C0008AD
:1001C00010B5054C237833B9044B13B10448AFF391
:1001D00000800123237010BDC00900200000000032
:1001E000D4EA000808B5034B1BB103490348AFF339
:1001F000008008BD00000000C4090020D4EA000807
:1002000081F0004102E000BF83F0004330B54FEAC7
:1002100041044FEA430594EA050F08BF90EA020F34
:100220001FBF54EA000C55EA020C7FEA645C7FEAC7
:10023000655C00F0E2804FEA5454D4EB5555B8BFEA
:100240006D420CDD2C4480EA020281EA030382EA5B
:10025000000083EA010180EA020281EA0303362DED
:1002600088BF30BD11F0004F4FEA01314FF4801CC0
:100270004CEA113102D0404261EB410113F0004FD2
:100280004FEA03334CEA133302D0524263EB430389
:1002900094EA050F00F0A780A4F10104D5F1200E27
:1002A0000DDB02FA0EFC22FA05F2801841F1000182
:1002B00003FA0EF2801843FA05F359410EE0A5F156
:1002C00020050EF1200E012A03FA0EFC28BF4CF087
:1002D000020C43FA05F3C01851EBE37101F000453D
:1002E00007D54FF0000EDCF1000C7EEB00006EEB4A
:1002F0000101B1F5801F1BD3B1F5001F0CD34908D4
:100300005FEA30004FEA3C0C04F101044FEA44522A
:1003100012F5800F80F09A80BCF1004F08BF5FEAB1
:10032000500C50F1000041EB045141EA050130BD91
:100330005FEA4C0C404141EB0101013C28BFB1F5A3
:10034000801FE9D291F0000F04BF01460020B1FAEE
:1003500081F308BF2033A3F10B03B3F120020CDAC1
:100360000C3208DD02F1140CC2F10C0201FA0CF09F
:1003700021FA02F10CE002F11402D8BFC2F1200C04
:1003800001FA02F120FA0CFCDCBF41EA0C019040BA
:10039000E41AA2BF01EB0451294330BD6FEA040403
:1003A0001F3C1CDA0C340EDC04F11404C4F12002EE
:1003B00020FA04F001FA02F340EA030021FA04F300
:1003C00045EA030130BDC4F10C04C4F1200220FA57
:1003D00002F001FA04F340EA0300294630BD21FA95
:1003E00004F0294630BD94F0000F83F4801306BF5B
:1003F00081F480110134013D4EE77FEA645C18BF4F
:100400007FEA655C29D094EA050F08BF90EA020FE5
:1004100005D054EA000C04BF1946104630BD91EADD
:10042000030F1EBF0021002030BD5FEA545C05D1E0
:100430004000494128BF41F0004130BD14F580041F
:100440003CBF01F5801130BD01F0004545F0FE4193
:1004500041F470014FF0000030BD7FEA645C1ABFC8
:10046000194610467FEA655C1CBF0B46024650EAFF
:10047000013406BF52EA033591EA030F41F400212B
:1004800030BD00BF90F0000F04BF0021704730B5B1
:100490004FF4806404F132044FF000054FF0000186
:1004A00050E700BF90F0000F04BF0021704730B547
:1004B0004FF4806404F1320410F0004548BF40421C
:1004C0004FF000013EE700BF42004FEAE2014FEA71
:1004D00031014FEA02701FBF12F07F4393F07F4F4C
:1004E00081F06051704732F07F4208BF704793F04F
:1004F0007F4F04BF41F40021704730B54FF4607462
:1005000001F0004521F000411CE700BF50EA010264
:1005100008BF704730B54FF000050AE050EA01020D
:1005200008BF704730B511F0004502D5404261EB7D
:1005300041014FF4806404F132045FEA915C3FF4BE
:10054000D8AE4FF003025FEADC0C18BF03325FEA5B
:10055000DC0C18BF033202EBDC02C2F1200300FA0C
:1005600003FC20FA02F001FA03FE40EA0E0021FA31
:1005700002F11444BDE600BF4A0011D212F5001288
:1005800011D20DD56FF47873B3EB62520ED44FEAEB
:10059000C12343F0004343EA505323FA02F070476B
:1005A0004FF00000704750EA013002D14FF0FF30A9
:1005B00070474FF00000704753B94AB9002908BF8F
:1005C00000281CBF4FF0FF314FF0FF3000F074B92E
:1005D000ADF1080C6DE904CE00F006F8DDF804E09A
:1005E000DDE9022304B070472DE9F047089D044679
:1005F0008E46002B4DD18A42944669D9B2FA82F2D6
:1006000052B101FA02F3C2F1200120FA01F10CFA11
:1006100002FC41EA030E94404FEA1C48210CBEFB49
:10062000F8F61FFA8CF708FB16E341EA034306FBD2
:1006300007F199420AD91CEB030306F1FF3080F061
:100640001F81994240F21C81023E63445B1AA4B2AE
:10065000B3FBF8F008FB103344EA034400FB07F750
:10066000A7420AD91CEB040400F1FF3380F00A8191
:10067000A74240F207816444023840EA0640E41B86
:1006800000261DB1D4400023C5E900433146BDE832
:10069000F0878B4209D9002D00F0EF800026C5E9D4
:1006A000000130463146BDE8F087B3FA83F6002EEC
:1006B0004AD18B4202D3824200F2F980841A61EB64
:1006C000030301209E46002DE0D0C5E9004EDDE782
:1006D00002B9FFDEB2FA82F2002A40F09280A1EB6A
:1006E0000C014FEA1C471FFA8CFE0126200CB1FBBF
:1006F000F7F307FB131140EA01410EFB03F08842B8
:1007000008D91CEB010103F1FF3802D2884200F244
:10071000CB804346091AA4B2B1FBF7F007FB1011D6
:1007200044EA01440EFB00FEA64508D91CEB040474
:1007300000F1FF3102D2A64500F2BB800846A4EBCF
:100740000E0440EA03409CE7C6F12007B34022FABA
:1007500007FC4CEA030C20FA07F401FA06F31C43E9
:10076000F9404FEA1C4900FA06F3B1FBF9F8200CF6
:100770001FFA8CFE09FB181140EA014108FB0EF03C
:10078000884202FA06F20BD91CEB010108F1FF3A8C
:1007900080F08880884240F28580A8F10208614498
:1007A000091AA4B2B1FBF9F009FB101144EA0141A6
:1007B00000FB0EFE8E4508D91CEB010100F1FF3451
:1007C0006CD28E456AD90238614440EA0840A0FBE9
:1007D0000294A1EB0E01A142C846A64656D353D0BF
:1007E0005DB1B3EB080261EB0E0101FA07F722FAE3
:1007F00006F3F1401F43C5E9007100263146BDE80C
:10080000F087C2F12003D8400CFA02FC21FA03F36E
:10081000914001434FEA1C471FFA8CFEB3FBF7F0EF
:1008200007FB10360B0C43EA064300FB0EF69E4214
:1008300004FA02F408D91CEB030300F1FF382FD2AD
:100840009E422DD9023863449B1B89B2B3FBF7F655
:1008500007FB163341EA034106FB0EF38B4208D92E
:100860001CEB010106F1FF3816D28B4214D9023E6F
:100870006144C91A46EA004638E72E46284605E78D
:100880000646E3E61846F8E64B45A9D2B9EB02085E
:1008900064EB0C0E0138A3E74646EAE7204694E7EE
:1008A0004046D1E7D0467BE7023B614432E7304621
:1008B00009E76444023842E7704700BF00000000C7
:1008C00001F0FF01102A2BDB10F0070F08D010F801
:1008D000013B013A8B422DD010F0070F42B3F6D105
:1008E000F0B441EA012141EA014122F007047FF01E
:1008F00000070023F0E80256083C85EA010586EA75
:10090000010685FA47F5A3FA87F586FA47F6A5FAB0
:1009100087F68EB9EED1F0BC01F0FF0102F00702BC
:1009200032B110F8013B013A83EA010313B1F8D167
:100930000020704701387047002D06BF3546033848
:10094000073815F0010F07D1013015F4807F02BF81
:10095000013015F4C03F0130F0BC0138704700BFD2
:10096000844641EA000313F003036DD1403A41D3BA
:1009700051F8043B40F8043B51F8043B40F8043B79
:1009800051F8043B40F8043B51F8043B40F8043B69
:1009900051F8043B40F8043B51F8043B40F8043B59
:1009A00051F8043B40F8043B51F8043B40F8043B49
:1009B00051F8043B40F8043B51F8043B40F8043B39
:1009C00051F8043B40F8043B51F8043B40F8043B29
:1009D00051F8043B40F8043B51F8043B40F8043B19
:1009E00051F8043B40F8043B51F8043B40F8043B09
:1009F000403ABDD2303211D351F8043B40F8043BA9
:100A000051F8043B40F8043B51F8043B40F8043BE8
:100A100051F8043B40F8043B103AEDD20C3205D3B8
:100A200051F8043B40F8043B043AF9D2043208D0B0
:100A3000D2071CBF11F8013B00F8013B01D30B8822
:100A400003806046704700BF082A13D38B078DD000
:100A500010F003038AD0C3F10403D21ADB071CBFD2
:100A600011F8013B00F8013B80D331F8023B20F83C
:100A7000023B7BE7043AD9D3013A11F8013B00F875
:100A8000013BF9D20B7803704B7843708B788370FD
:100A900060467047000000000000000000000000F9
:100AA0000000000000000000000000000000000046
:100AB0000000000000000000000000000000000036
:100AC00090F800F06DE9024520F007016FF0000C8E
:100AD00010F0070491F820F040F049804FF0000436
:100AE0006FF00700D1E9002391F840F000F1080011
:100AF00082FA4CF2A4FA8CF283FA4CF3A2FA8CF349
:100B00004BBBD1E9022382FA4CF200F10800A4FAAF
:100B10008CF283FA4CF3A2FA8CF3E3B9D1E9042303
:100B200082FA4CF200F10800A4FA8CF283FA4CF33A
:100B3000A2FA8CF37BB9D1E9062301F1200182FAF4
:100B40004CF200F10800A4FA8CF283FA4CF3A2FAFA
:100B50008CF3002BC6D0002A04BF04301A4612BA08
:100B6000B2FA82F2FDE8024500EBD2007047D1E90B
:100B7000002304F00305C4F100004FEAC50514F09A
:100B8000040F91F840F00CFA05F562EA05021CBF6B
:100B900063EA050362464FF00004A9E770B54FF021
:100BA000FF0C4CF4E06C1CEA11541DBF1CEA1355F9
:100BB00094EA0C0F95EA0C0F00F0DEF82C4481EA61
:100BC000030621EA4C5123EA4C5350EA013518BF81
:100BD00052EA033541F4801143F4801338D0A0FB6E
:100BE00002CE4FF00005E1FB02E506F00042E0FB1B
:100BF00003E54FF00006E1FB03569CF0000F18BF21
:100C00004EF0010EA4F1FF04B6F5007F64F54074C8
:100C100004D25FEA4E0E6D4146EB060642EAC6215B
:100C200041EA55514FEAC52040EA5E504FEACE2EC8
:100C3000B4F1FD0C88BFBCF5E06F1ED8BEF1004FCB
:100C400008BF5FEA500E50F1000041EB045170BD47
:100C500006F0004646EA010140EA020081EA03018B
:100C6000B4EB5C04C2BFD4EB0C0541EA045170BD87
:100C700041F480114FF0000E013C00F3AB8014F101
:100C8000360FDEBF002001F0004170BDC4F100044A
:100C9000203C35DA0C341BDC04F11404C4F12005CB
:100CA00000FA05F320FA04F001FA05F240EA020026
:100CB00001F0004221F0004110EBD37021FA04F65C
:100CC00042EB06015EEA430E08BF20EAD37070BD16
:100CD000C4F10C04C4F1200500FA04F320FA05F075
:100CE00001FA04F240EA020001F0004110EBD37077
:100CF00041F100015EEA430E08BF20EAD37070BDE7
:100D0000C4F1200500FA05F24EEA020E20FA04F3BF
:100D100001FA05F243EA020321FA04F001F000416E
:100D200021FA04F220EA020000EBD3705EEA430EDF
:100D300008BF20EAD37070BD94F0000F0FD101F00E
:100D40000046400041EB010111F4801F08BF013C47
:100D5000F7D041EA060195F0000F18BF704703F085
:100D60000046520043EB030313F4801F08BF013D0C
:100D7000F7D043EA0603704794EA0C0F0CEA1355C8
:100D800018BF95EA0C0F0CD050EA410618BF52EA82
:100D90004306D1D181EA030101F000414FF0000088
:100DA00070BD50EA410606BF1046194652EA430696
:100DB00019D094EA0C0F02D150EA013613D195EA0A
:100DC0000C0F05D152EA03361CBF104619460AD152
:100DD00081EA030101F0004141F0FE4141F470015C
:100DE0004FF0000070BD41F0FE4141F4780170BD4C
:100DF00070B54FF0FF0C4CF4E06C1CEA11541DBFB1
:100E00001CEA135594EA0C0F95EA0C0F00F0A7F8B2
:100E1000A4EB050481EA030E52EA03354FEA0131DF
:100E200000F088804FEA03334FF0805545EA1313F2
:100E300043EA12634FEA022245EA111545EA1065BA
:100E40004FEA00260EF000419D4208BF964244F151
:100E5000FD0404F5407402D25B084FEA3202B61A70
:100E600065EB03055B084FEA32024FF480104FF444
:100E7000002CB6EB020E75EB030E22BFB61A7546B8
:100E800040EA0C005B084FEA3202B6EB020E75EB4B
:100E9000030E22BFB61A754640EA5C005B084FEAB3
:100EA0003202B6EB020E75EB030E22BFB61A754680
:100EB00040EA9C005B084FEA3202B6EB020E75EB8B
:100EC000030E22BFB61A754640EADC0055EA060E4C
:100ED00018D04FEA051545EA16754FEA06164FEA8F
:100EE000C30343EA52734FEAC2025FEA1C1CC0D13B
:100EF00011F4801F0BD141EA00014FF000004FF0C8
:100F0000004CB6E711F4801F04BF01430020B4F188
:100F1000FD0C88BFBCF5E06F3FF6AFAEB5EB030C40
:100F200004BFB6EB020C5FEA500C50F1000041EB3D
:100F3000045170BD0EF0004E4EEA113114EB5C040A
:100F4000C2BFD4EB0C0541EA045170BD41F48011DD
:100F50004FF0000E013C90E645EA060E8DE60CEAE5
:100F6000135594EA0C0F08BF95EA0C0F3FF43BAF02
:100F700094EA0C0F0AD150EA01347FF434AF95EAB9
:100F80000C0F7FF425AF104619462CE795EA0C0F9D
:100F900006D152EA03353FF4FDAE1046194622E76A
:100FA00050EA410618BF52EA43067FF4C5AE50EA44
:100FB00041047FF40DAF52EA43057FF4EBAE12E734
:100FC0004FF0FF3C06E000BF4FF0010C02E000BF15
:100FD0004FF0010C4DF804CD4FEA410C7FEA6C5CF8
:100FE0004FEA430C18BF7FEA6C5C1BD001B050EA9B
:100FF000410C0CBF52EA430C91EA030F02BF90EA86
:10100000020F0020704710F1000F91EA030F58BF44
:10101000994208BF90422CBFD8176FEAE37040F0A6
:10102000010070474FEA410C7FEA6C5C02D150EA44
:10103000013C07D14FEA430C7FEA6C5CD6D152EAFF
:10104000033CD3D05DF8040B704700BF84461046C4
:1010500062468C461946634600E000BF01B5FFF7C3
:10106000B7FF002848BF10F1000F01BD4DF808ED93
:10107000FFF7F4FF0CBF012000205DF808FB00BF64
:101080004DF808EDFFF7EAFF34BF012000205DF8BE
:1010900008FB00BF4DF808EDFFF7E0FF94BF01200B
:1010A00000205DF808FB00BF4DF808EDFFF7CEFF0C
:1010B00094BF012000205DF808FB00BF4DF808ED4B
:1010C000FFF7C4FF34BF012000205DF808FB00BF1C
:1010D0004FEA410C7FEA6C5C02D150EA013C0AD134
:1010E0004FEA430C7FEA6C5C02D152EA033C02D126
:1010F0004FF0000070474FF0010070474FEA410287
:1011000012F5001215D211D56FF47873B3EB625259
:1011100012D94FEAC12343F0004343EA505311F080
:10112000004F23FA02F018BF404270474FF0000012
:10113000704750EA013005D111F0004008BF6FF050
:10114000004070474FF00000704700BF00B585B009
:10115000002300930193029303931648164A0260FA
:101160004FF48032426083600361037680F8203060
:101170004FF08052C2624FF000628262C36001226F
:10118000C26180F83030426103F044FE60B90A2346
:1011900000930123019302936946064803F0B4FFCC
:1011A00028B905B05DF804FB03F048FAEFE703F057
:1011B00045FAF6E7DC0900200020014030B589B08F
:1011C000002303930493059306930793026803F1A6
:1011D000804303F590339A4201D009B030BD0446F4
:1011E0000025019503F58C335A6C42F480725A64E1
:1011F0005A6C02F480720192019A02951A6B42F0C5
:1012000004021A631B6B03F004030293029B012385
:1012100003930323049303A9154804F0E7FB15483F
:10122000154B036045608560C5604FF480630361C2
:101230004FF4006343614FF4005383614FF48073B4
:10124000C3614FF440330362456204F045FA58B974
:10125000084BA3639C6300221146122004F034F86B
:10126000122004F069F8B8E703F0E8F9F0E700BFEE
:1012700000080240240A00201064024000B583B038
:101280000023009301930C480C4B036004F076F8A4
:1012900058B904230093002201926946064804F0DD
:1012A00052F928B903B05DF804FB03F0C7F9F0E781
:1012B00003F0C4F9F6E700BF840A00200074004080
:1012C00030B589B0002303930493059306930793E5
:1012D0000268284B9A4201D009B030BD044600256F
:1012E000019503F5E2331A6C42F000521A641A6C4D
:1012F00002F000520192019A02951A6B42F001022B
:101300001A631B6B03F001030293029B10230393E8
:101310000323049303A9184804F068FB1748184BEB
:1013200003604FF06063436040238360C5604FF407
:10133000806303614FF4006343614FF400538361A2
:101340004FF48073C3614FF400330362456204F0CD
:10135000C3F958B9094BA3609C63002201213620D0
:1013600003F0B2FF362003F0E7FFB5E703F066F9BC
:10137000F0E700BF0074004000000240980A00201F
:101380008860024010B582B000240094124B1A6BA2
:1013900042F400121A631A6B02F400120092009ACF
:1013A00001941A6B42F480021A631B6B03F48003EE
:1013B0000193019B22462146102003F085FF102057
:1013C00003F0BAFF22462146382003F07DFF382083
:1013D00003F0B2FF02B010BD003802402DE9F04129
:1013E00086B0002301930293039304930593224B49
:1013F0001B6813B106B0BDE8F0811F4B01221A60D3
:10140000002600961D4B9A6B42F001029A639B6B7B
:1014100003F001030093009B4FF48058CDF8048043
:1014200002270297032504950C24059401A914486A
:1014300004F0DCFA4FF6807301930297039604954B
:10144000059401A90F4804F0D1FA4CF233730193CB
:10145000029703960495059401A90B4804F0C6FA77
:10146000CDF80480029703960495059401A90748D6
:1014700004F0BCFABEE700BFF80A002000380240C2
:101480000014024000100240000C0240001802400C
:10149000A82303FB00F0800800BF03460138002B9F
:1014A000FAD1704782B0ADF80600BDF806309BB2A5
:1014B000ADF80630BDF806309BB24FF0D842A2F826
:1014C0007E3002B0704782B0ADF80600BDF806303D
:1014D0009BB2ADF80630BDF806309BB24FF0D84253
:1014E000A2F8803002B0704782B04FF0D843B3F812
:1014F00080309BB2ADF80630BDF8060080B202B075
:1015000070474FF0D843A3F87E00A3F880107047CF
:10151000034B1A894FF0D843A3F87E20704700BFD1
:101520004C0B002070B505460C46404B9B8841F69D
:101530006312934217D045F21052934257D03B4E5C
:101540007089FFF7AFFF280AFFF7BDFFE8B2FFF78A
:10155000BAFFB089FFF7A6FF200AFFF7B4FFE0B299
:10156000FFF7B1FF70BD314B9B7953BB2F4B1888F0
:10157000451BADB2013DADB25889FFF793FF002086
:10158000FFF7A1FF0020FFF79EFF280AFFF79BFF50
:10159000E8B2FFF798FF254DA889FFF783FF200ADF
:1015A000FFF791FFE0B2FFF78EFF68880138C0F3C4
:1015B0000F20FFF788FF68880138C0B2FFF783FF6C
:1015C000D0E71A4E7089FFF76DFF280AFFF77BFFFF
:1015D000E8B2FFF778FF30880138C0F30F20FFF73B
:1015E00072FF30880138C0B2FFF76DFFD3E70F4EAE
:1015F0007089FFF757FF280AFFF765FF70890130F0
:1016000080B2FFF74FFFE8B2FFF75DFFB089FFF749
:1016100049FF200AFFF757FFB089013080B2FFF77A
:1016200041FFE0B2FFF74FFF9CE700BF4C0B0020EB
:1016300010B5744B9B79012B10D02BB9714B9A8844
:1016400041F663139A420FD00138062800F28480D5
:10165000DFE800F07472706E6C6A1600694A918857
:1016600041F663129142E8D00728EDD8DFE800F098
:1016700072706C6E06046A68002402E0802400E048
:10168000E024604B9B8845F21052934266D036208E
:1016900049F24132934203D047F28972934201D119
:1016A00044F008042146FFF72CFF564B9B8841F677
:1016B000631293420AD014F0200F52D0514A11887D
:1016C0005288914202D24F480280418045F2105226
:1016D00093424FD04B4C6089FFF7E4FE0020FFF7A8
:1016E000F2FE0020FFF7EFFE20880138C0F30F2044
:1016F000FFF7E9FE20880138C0B2FFF7E4FEA089B9
:10170000FFF7D0FE0020FFF7DEFE0020FFF7DBFE34
:1017100060880138C0F30F20FFF7D5FE60880138DC
:10172000C0B2FFF7D0FE10BDA024AAE76024A8E74E
:101730002024A6E7C024A4E74024A2E78024A0E751
:1017400040249EE7C0249CE720249AE7602498E781
:10175000E02496E7A02494E7002492E74FF4585041
:1017600096E7284A118852889142AFD925480280CD
:101770004180ABE7234C6089FFF794FE0020FFF720
:10178000A2FE6089013080B2FFF78CFE0020FFF7D7
:101790009AFE6089023080B2FFF784FE208801380B
:1017A000C0F30F20FFF78FFE6089033080B2FFF790
:1017B00079FE20880138C0B2FFF785FEA089FFF7C7
:1017C00071FE0020FFF77FFEA089013080B2FFF795
:1017D00069FE0020FFF777FEA089023080B2FFF794
:1017E00061FE60880138C0F30F20FFF76CFEA0890E
:1017F000033080B2FFF756FE60880138C0B2FFF7B1
:1018000062FE90E74C0B002008B5FFF78BFEFFF758
:101810007FFE034B1A884FF0D843A3F8802008BD01
:10182000040000202DE9F04104460E4615463A4BCF
:101830009B8845F2105C63453BD041F663129342AE
:1018400055D1354B9B792BB9334B1888041BA4B267
:10185000013CA4B2304F7889FFF724FE4FEA1428E8
:101860004046FFF730FEE4B22046FFF72CFE40462C
:10187000FFF729FE2046FFF726FEB889FFF712FE84
:10188000340A2046FFF71FFEF6B23046FFF71BFE74
:101890002046FFF718FE3046FFF715FE1E4B19894C
:1018A0004FF0D843A3F87E10AAB2A3F88020BDE879
:1018B000F081194F7889FFF7F5FD200AFFF703FE45
:1018C0007889013080B2FFF7EDFDE0B2FFF7FBFD54
:1018D000B889FFF7E7FD300AFFF7F5FDB889013059
:1018E00080B2FFF7DFFDF0B2FFF7EDFDD6E70A4F5C
:1018F0007889FFF7D7FD200AFFF7E5FDE0B2FFF793
:10190000E2FDB889FFF7CEFD300AFFF7DCFDF0B24B
:10191000FFF7D9FDC2E700BF4C0B0020000000001C
:1019200010B50446BE20FFF7BDFD0520FFF7CBFD37
:101930002046FEF7B7FD0CA3D3E90023FFF72EF9ED
:10194000FEF71AFE80B2FFF7BEFD0120FFF7BBFDD8
:10195000FF20FFF7B8FD0020FFF7B5FD0020FFF7DF
:10196000B2FD10BDAFF30080666666666666044031
:1019700008B5444B9871002843D1F0221A804FF4E7
:10198000A0725A809B8845F21052934212D041F6C1
:10199000631293421FD03B4A2C2111812A2151818D
:1019A0002B21918145F21032934222D00020FFF783
:1019B0003FFE08BD334A4FF4305111814FF4285196
:1019C00051814FF42C5191814FF4F07111804FF4FB
:1019D00048715180E6E72B4A2C2111812B2151813E
:1019E0002A2191814FF4F07111804FF44871518098
:1019F000D8E7244B4FF4A0721A804FF4F0725A804B
:101A0000D4E7204B4FF4A0721A80F0225A809B88B2
:101A100045F21052934216D041F66312934223D0FE
:101A2000184A2C2111812A2151812B21918145F2C3
:101A300010329342BAD1134B4FF4F0721A804FF424
:101A4000A0725A80B2E70F4A4FF4305111814FF41F
:101A5000285151814FF42C5191814FF448711180DC
:101A60004FF4F0715180E2E7064A2C2111812A21BE
:101A700051812B2191814FF4487111804FF4F07105
:101A80005180D4E74C0B002038B505460A4B1A8824
:101A90005C8802FB04F400210846FFF743FDFFF7D2
:101AA00037FD002205E0ABB24FF0D841A1F88030FD
:101AB0000132A242F7D338BD4C0B002010B5D32021
:101AC000FFF7F0FCFFF710FD714CA080FFF70CFD55
:101AD000A080FFF709FDA0800002A080FFF704FDB1
:101AE000A388184380B2A08049F2413398424FD175
:101AF000674CA188674805F031FEA38849F241325E
:101B0000934200F0CD8047F28972934200F0DD816C
:101B100045F21032934200F0AB8245F210529342EC
:101B200001F01F8241F66312934202F09881584BF4
:101B30009B8849F2413293420BD045F210329342D6
:101B400007D045F21052934203D041F663129342FC
:101B500010D1514BDA6922F00F02DA61DA6922F40E
:101B60007062DA61DA6942F00302DA61DA6942F43A
:101B70000072DA610020FFF7FBFE01224FF4004102
:101B8000464804F025F84FF6FF70FFF77DFF10BDC3
:101B90000420FFF787FCFFF7A7FCA080FFF7A4FC59
:101BA000A080FFF7A1FCA0800002A080FFF79CFCB2
:101BB000A388184380B2A08048F2525398425ED066
:101BC000334B9A8847F289739A4291D0D420FFF719
:101BD00069FCFFF789FC2E4CA080FFF785FCA080F4
:101BE000FFF782FCA0800002A080FFF77DFCA388A5
:101BF000184380B2A08045F2103398423FF478AF8A
:101C00004FF45A40FFF74EFCFFF76EFCA0804FF4F4
:101C10005B40FFF747FCFFF767FCA0800002A08055
:101C20004FF45C40FFF73EFCFFF75EFCA3881843CF
:101C300080B2A080B0F5004F25D0154B9A8845F2B0
:101C400010539A423FF454AFA120FFF72BFCFFF74B
:101C50004BFC0F4CA080FFF747FCA0800002A08047
:101C6000FFF742FCA38803439BB2A38045F2617255
:101C700093427FF43DAF41F66312A28038E747F20A
:101C80008972A2809CE745F21052A280D5E700BF7E
:101C90004C0B0020F0EA0008000100A00004024004
:101CA000CF20FFF7FFFB0020FFF70DFCC120FFF75F
:101CB0000AFC3020FFF707FCED20FFF7F3FB642060
:101CC000FFF701FC0320FFF7FEFB1220FFF7FBFBF1
:101CD0008120FFF7F8FBE820FFF7E4FB8520FFF702
:101CE000F2FB1020FFF7EFFB7A20FFF7ECFBCB2095
:101CF000FFF7D8FB3920FFF7E6FB2C20FFF7E3FBCB
:101D00000020FFF7E0FB3420FFF7DDFB0220FFF7A8
:101D1000DAFBF720FFF7C6FB2020FFF7D4FBEA2011
:101D2000FFF7C0FB0020FFF7CEFB0020FFF7CBFB47
:101D3000C020FFF7B7FB1B20FFF7C5FBC120FFF753
:101D4000B1FB0120FFF7BFFBC520FFF7ABFB302045
:101D5000FFF7B9FB3020FFF7B6FBC720FFF7A2FB68
:101D6000B720FFF7B0FB3620FFF79CFB4820FFF7BA
:101D7000AAFB3A20FFF796FB5520FFF7A4FBB12002
:101D8000FFF790FB0020FFF79EFB1A20FFF79BFB5D
:101D9000B620FFF787FB0A20FFF795FBA220FFF78D
:101DA00092FBF220FFF77EFB0020FFF78CFB262042
:101DB000FFF778FB0120FFF786FBE020FFF772FBBF
:101DC0000F20FFF780FB2A20FFF77DFB2820FFF77D
:101DD0007AFB0820FFF777FB0E20FFF774FB082043
:101DE000FFF771FB5420FFF76EFBA920FFF76BFB99
:101DF0004320FFF768FB0A20FFF765FB0F20FFF782
:101E000062FB0020FFF75FFB0020FFF75CFB002078
:101E1000FFF759FB0020FFF756FBE120FFF742FBDD
:101E20000020FFF750FB1520FFF74DFB1720FFF7B1
:101E30004AFB0720FFF747FB1120FFF744FB062072
:101E4000FFF741FB2B20FFF73EFB5620FFF73BFB44
:101E50003C20FFF738FB0520FFF735FB1020FFF78C
:101E600032FB0F20FFF72FFB3F20FFF72CFB3F201B
:101E7000FFF729FB0F20FFF726FB2B20FFF712FBB4
:101E80000020FFF720FB0020FFF71DFB0120FFF7DC
:101E90001AFB3F20FFF717FB2A20FFF703FB002068
:101EA000FFF711FB0020FFF70EFB0020FFF70BFBF5
:101EB000EF20FFF708FB1120FFF7F4FA782002F07B
:101EC000FBFE2920FFF7EEFA31E61120FFF7EAFAD0
:101ED000782002F0F1FE3620FFF7E4FA0020FFF749
:101EE000F2FA3A20FFF7DEFA0520FFF7ECFAB2200B
:101EF000FFF7D8FA0C20FFF7E6FA0C20FFF7E3FA19
:101F00000020FFF7E0FA3320FFF7DDFA3320FFF778
:101F1000DAFAB720FFF7C6FA3520FFF7D4FABB206C
:101F2000FFF7C0FA3220FFF7CEFAC020FFF7BAFA67
:101F30000C20FFF7C8FAC220FFF7B4FA0120FFF720
:101F4000C2FAC320FFF7AEFA1020FFF7BCFAC42094
:101F5000FFF7A8FA2020FFF7B6FAC620FFF7A2FA8B
:101F60000F20FFF7B0FAD020FFF79CFAA420FFF76C
:101F7000AAFAA120FFF7A7FAE020FFF793FAD020F2
:101F8000FFF7A1FA0020FFF79EFA0220FFF79BFA65
:101F90000720FFF798FA0A20FFF795FA2820FFF7A5
:101FA00092FA3220FFF78FFA4420FFF78CFA422092
:101FB000FFF789FA0620FFF786FA0E20FFF783FA6B
:101FC0001220FFF780FA1420FFF77DFA1720FFF7A1
:101FD0007AFAE120FFF766FAD020FFF774FA0020C2
:101FE000FFF771FA0220FFF76EFA0720FFF76BFA8E
:101FF0000A20FFF768FA2820FFF765FA3120FFF77B
:1020000062FA5420FFF75FFA4720FFF75CFA0E20D0
:10201000FFF759FA1C20FFF756FA1720FFF753FA7B
:102020001B20FFF750FA1E20FFF74DFA2A20FFF77A
:1020300039FA0020FFF747FA0020FFF744FA0020A2
:10204000FFF741FAEF20FFF73EFA2B20FFF72AFABD
:102050000020FFF738FA0020FFF735FA0120FFF7DC
:1020600032FA3F20FFF72FFA2920FFF71BFA5EE52F
:10207000ED20FFF717FA0120FFF725FAFE20FFF702
:1020800022FAEE20FFF70EFADE20FFF71CFA2120DD
:10209000FFF719FAF120FFF705FA0120FFF713FA0D
:1020A000DF20FFF7FFF91020FFF70DFAC420FFF73C
:1020B000F9F98F20FFF707FAC620FFF7F3F90020A0
:1020C000FFF701FAE220FFF7FEF9E220FFF7FBF944
:1020D000E220FFF7F8F9BF20FFF7E4F9AA20FFF7A5
:1020E000F2F9B020FFF7DEF90D20FFF7ECF9002040
:1020F000FFF7E9F90D20FFF7E6F90020FFF7E3F914
:102100001120FFF7E0F90020FFF7DDF91920FFF7B4
:10211000DAF90020FFF7D7F92120FFF7D4F90020E2
:10212000FFF7D1F92D20FFF7CEF90020FFF7CBF90B
:102130003D20FFF7C8F90020FFF7C5F95D20FFF744
:10214000C2F90020FFF7BFF95D20FFF7BCF90020BE
:10215000FFF7B9F9B120FFF7A5F98020FFF7B3F930
:102160000020FFF7B0F98B20FFF7ADF90020FFF753
:10217000AAF99620FFF7A7F90020FFF7A4F9B220EB
:10218000FFF790F90020FFF79EF90020FFF79BF979
:102190000220FFF798F90020FFF795F90320FFF7D9
:1021A00092F90020FFF78FF9B320FFF77BF90020A9
:1021B000FFF789F90020FFF786F90020FFF783F980
:1021C0000020FFF780F90020FFF77DF90020FFF7DE
:1021D0007AF90020FFF777F90020FFF774F9002063
:1021E000FFF771F90020FFF76EF90020FFF76BF998
:1021F0000020FFF768F90020FFF765F90020FFF7DE
:1022000062F90020FFF75FF90020FFF75CF900207A
:10221000FFF759F90020FFF756F90020FFF753F9AF
:102220000020FFF750F90020FFF74DF90020FFF7DD
:102230004AF90020FFF747F90020FFF744F9B420DE
:10224000FFF730F98B20FFF73EF90020FFF73BF94D
:102250009620FFF738F90020FFF735F9A120FFF7A6
:1022600032F90020FFF72FF9B520FFF71BF9022004
:10227000FFF729F90020FFF726F90320FFF723F9DC
:102280000020FFF720F90420FFF71DF90020FFF7D9
:102290001AF9B620FFF706F90020FFF714F900201D
:1022A000FFF711F9B720FFF7FDF80020FFF70BF952
:1022B0000020FFF708F93F20FFF705F90020FFF79E
:1022C00002F95E20FFF7FFF80020FFF7FCF864201A
:1022D000FFF7F9F80020FFF7F6F88C20FFF7F3F886
:1022E0000020FFF7F0F8AC20FFF7EDF80020FFF733
:1022F000EAF8DC20FFF7E7F80020FFF7E4F87020A9
:10230000FFF7E1F80020FFF7DEF89020FFF7DBF899
:102310000020FFF7D8F8EB20FFF7D5F80020FFF7F3
:10232000D2F8DC20FFF7CFF80020FFF7CCF8B82078
:10233000FFF7B8F80020FFF7C6F80020FFF7C3F852
:102340000020FFF7C0F80020FFF7BDF80020FFF7DE
:10235000BAF80020FFF7B7F80020FFF7B4F8002024
:10236000FFF7B1F8BA20FFF79DF82420FFF7ABF88C
:102370000020FFF7A8F80020FFF7A5F80020FFF7DE
:10238000A2F8C120FFF78EF82020FFF79CF800206C
:10239000FFF799F85420FFF796F80020FFF793F81D
:1023A000FF20FFF790F80020FFF78DF8C220FFF71D
:1023B00079F80A20FFF787F80020FFF784F8042057
:1023C000FFF781F80020FFF77EF8C320FFF76AF8D7
:1023D0003C20FFF778F80020FFF775F83A20FFF768
:1023E00072F80020FFF76FF83920FFF76CF8002033
:1023F000FFF769F83720FFF766F80020FFF763F86A
:102400003C20FFF760F80020FFF75DF83620FFF76B
:102410005AF80020FFF757F83220FFF754F8002051
:10242000FFF751F82F20FFF74EF80020FFF74BF889
:102430002C20FFF748F80020FFF745F82920FFF788
:1024400042F80020FFF73FF82620FFF73CF8002075
:10245000FFF739F82420FFF736F80020FFF733F8AC
:102460002420FFF730F80020FFF72DF82320FFF796
:102470002AF80020FFF727F83C20FFF724F8002077
:10248000FFF721F83620FFF71EF80020FFF71BF8B2
:102490003220FFF718F80020FFF715F82F20FFF77C
:1024A00012F80020FFF70FF82C20FFF70CF800209F
:1024B000FFF709F82920FFF706F80020FFF703F8D7
:1024C0002620FFF700F80020FEF7FDFF2420FEF78E
:1024D000FAFF0020FEF7F7FF2420FEF7F4FF0020AC
:1024E000FEF7F1FF2320FEF7EEFF0020FEF7EBFFE3
:1024F000C420FEF7D7FF6220FEF7E5FF0020FEF7BD
:10250000E2FF0520FEF7DFFF0020FEF7DCFF84205E
:10251000FEF7D9FF0020FEF7D6FFF020FEF7D3FF2D
:102520000020FEF7D0FF1820FEF7CDFF0020FEF7B9
:10253000CAFFA420FEF7C7FF0020FEF7C4FF182043
:10254000FEF7C1FF0020FEF7BEFF5020FEF7BBFFE5
:102550000020FEF7B8FF0C20FEF7B5FF0020FEF7C5
:10256000B2FF1720FEF7AFFF0020FEF7ACFF95206B
:10257000FEF7A9FF0020FEF7A6FFF320FEF7A3FF5A
:102580000020FEF7A0FFE620FEF79DFF0020FEF7EB
:102590009AFFC520FEF786FF3220FEF794FF002049
:1025A000FEF791FF4420FEF78EFF0020FEF78BFF21
:1025B0006520FEF788FF0020FEF785FF7620FEF7F6
:1025C00082FF0020FEF77FFF8820FEF77CFF0020BF
:1025D000FEF779FFC620FEF765FF2020FEF773FFA8
:1025E0000020FEF770FF1720FEF76DFF0020FEF7BA
:1025F0006AFF0120FEF767FF0020FEF764FFC72097
:10260000FEF750FF0020FEF75EFF0020FEF75BFFA5
:102610000020FEF758FF0020FEF755FFC820FEF708
:1026200041FF0020FEF74FFF0020FEF74CFF002087
:10263000FEF749FF0020FEF746FFC920FEF732FFF4
:102640000020FEF740FF0020FEF73DFF0020FEF7D0
:102650003AFF0020FEF737FF0020FEF734FF00208E
:10266000FEF731FF0020FEF72EFF0020FEF72BFFC4
:102670000020FEF728FF0020FEF725FF0020FEF7D0
:1026800022FF0020FEF71FFF0020FEF71CFF0020A6
:10269000FEF719FF0020FEF716FF0020FEF713FFDC
:1026A000E020FEF7FFFE1620FEF70DFF0020FEF7EC
:1026B0000AFF1C20FEF707FF0020FEF704FF212081
:1026C000FEF701FF0020FEF7FEFE3620FEF7FBFEC0
:1026D0000020FEF7F8FE4620FEF7F5FE0020FEF78C
:1026E000F2FE5220FEF7EFFE0020FEF7ECFE642023
:1026F000FEF7E9FE0020FEF7E6FE7A20FEF7E3FE95
:102700000020FEF7E0FE8B20FEF7DDFE0020FEF746
:10271000DAFE9920FEF7D7FE0020FEF7D4FEA820AF
:10272000FEF7D1FE0020FEF7CEFEB920FEF7CBFE6D
:102730000020FEF7C8FEC420FEF7C5FE0020FEF70D
:10274000C2FECA20FEF7BFFE0020FEF7BCFED2206C
:10275000FEF7B9FE0020FEF7B6FED920FEF7B3FE65
:102760000020FEF7B0FEE020FEF7ADFE0020FEF7F1
:10277000AAFEF320FEF7A7FE0020FEF7A4FEE1204C
:10278000FEF790FE1620FEF79EFE0020FEF79BFE51
:102790001C20FEF798FE0020FEF795FE2220FEF793
:1027A00092FE0020FEF78FFE3620FEF78CFE002002
:1027B000FEF789FE4520FEF786FE0020FEF783FE29
:1027C0005220FEF780FE0020FEF77DFE6420FEF71B
:1027D0007AFE0020FEF777FE7A20FEF774FE0020D6
:1027E000FEF771FE8B20FEF76EFE0020FEF76BFEFB
:1027F0009920FEF768FE0020FEF765FEA820FEF790
:1028000062FE0020FEF75FFEB920FEF75CFE0020AE
:10281000FEF759FEC420FEF756FE0020FEF753FED9
:10282000CA20FEF750FE0020FEF74DFED220FEF734
:102830004AFE0020FEF747FED820FEF744FE0020A7
:10284000FEF741FEE020FEF73EFE0020FEF73BFED5
:10285000F320FEF738FE0020FEF735FEE220FEF7FB
:1028600021FE0520FEF72FFE0020FEF72CFE0B2098
:10287000FEF729FE0020FEF726FE1B20FEF723FEB2
:102880000020FEF720FE3420FEF71DFE0020FEF79C
:102890001AFE4420FEF717FE0020FEF714FE4F201C
:1028A000FEF711FE0020FEF70EFE6120FEF70BFE84
:1028B0000020FEF708FE7920FEF705FE0020FEF757
:1028C00002FE8820FEF7FFFD0020FEF7FCFD9720AA
:1028D000FEF7F9FD0020FEF7F6FDA620FEF7F3FD5A
:1028E0000020FEF7F0FDB720FEF7EDFD0020FEF71B
:1028F000EAFDC220FEF7E7FD0020FEF7E4FDC72059
:10290000FEF7E1FD0020FEF7DEFDD120FEF7DBFD46
:102910000020FEF7D8FDD620FEF7D5FD0020FEF7FB
:10292000D2FDDD20FEF7CFFD0020FEF7CCFDF32029
:10293000FEF7C9FD0020FEF7C6FDE320FEF7B2FD5D
:102940000520FEF7C0FD0020FEF7BDFD0A20FEF7C2
:10295000BAFD0020FEF7B7FD1C20FEF7B4FD0020F5
:10296000FEF7B1FD3320FEF7AEFD0020FEF7ABFD14
:102970004420FEF7A8FD0020FEF7A5FD5020FEF73D
:10298000A2FD0020FEF79FFD6220FEF79CFD0020C7
:10299000FEF799FD7820FEF796FD0020FEF793FDE7
:1029A0008820FEF790FD0020FEF78DFD9720FEF7B2
:1029B0008AFD0020FEF787FDA620FEF784FD00209B
:1029C000FEF781FDB720FEF77EFD0020FEF77BFDC0
:1029D000C220FEF778FD0020FEF775FDC720FEF748
:1029E00072FD0020FEF76FFDD120FEF76CFD002088
:1029F000FEF769FDD520FEF766FD0020FEF763FDBA
:102A0000DD20FEF760FD0020FEF75DFDF320FEF700
:102A10005AFD0020FEF757FDE420FEF743FD01209C
:102A2000FEF751FD0020FEF74EFD0120FEF74BFDA5
:102A30000020FEF748FD0220FEF745FD0020FEF7CE
:102A400042FD2A20FEF73FFD0020FEF73CFD3C2022
:102A5000FEF739FD0020FEF736FD4B20FEF733FD73
:102A60000020FEF730FD5D20FEF72DFD0020FEF773
:102A70002AFD7420FEF727FD0020FEF724FD8420A8
:102A8000FEF721FD0020FEF71EFD9320FEF71BFD43
:102A90000020FEF718FDA220FEF715FD0020FEF72E
:102AA00012FDB320FEF70FFD0020FEF70CFDBE2047
:102AB000FEF709FD0020FEF706FDC420FEF703FD2A
:102AC0000020FEF700FDCD20FEF7FDFC0020FEF704
:102AD000FAFCD320FEF7F7FC0020FEF7F4FCDD2023
:102AE000FEF7F1FC0020FEF7EEFCF320FEF7EBFC16
:102AF0000020FEF7E8FCE520FEF7D4FC0020FEF7FE
:102B0000E2FC0020FEF7DFFC0020FEF7DCFC0020EA
:102B1000FEF7D9FC0220FEF7D6FC0020FEF7D3FC1E
:102B20002920FEF7D0FC0020FEF7CDFC3C20FEF76C
:102B3000CAFC0020FEF7C7FC4B20FEF7C4FC0020B7
:102B4000FEF7C1FC5D20FEF7BEFC0020FEF7BBFCDB
:102B50007420FEF7B8FC0020FEF7B5FC8420FEF7D9
:102B6000B2FC0020FEF7AFFC9320FEF7ACFC002087
:102B7000FEF7A9FCA220FEF7A6FC0020FEF7A3FCAE
:102B8000B320FEF7A0FC0020FEF79DFCBE20FEF760
:102B90009AFC0020FEF797FCC420FEF794FC00206E
:102BA000FEF791FCCD20FEF78EFC0020FEF78BFC9B
:102BB000D320FEF788FC0020FEF785FCDC20FEF722
:102BC00082FC0020FEF77FFCF320FEF77CFC002057
:102BD000FEF779FCE620FEF765FC1120FEF773FC9A
:102BE0000020FEF770FC3420FEF76DFC0020FEF79D
:102BF0006AFC5620FEF767FC0020FEF764FC762096
:102C0000FEF761FC0020FEF75EFC7720FEF75BFC20
:102C10000020FEF758FC6620FEF755FC0020FEF76A
:102C200052FC8820FEF74FFC0020FEF74CFC992058
:102C3000FEF749FC0020FEF746FCBB20FEF743FCF4
:102C40000020FEF740FC9920FEF73DFC0020FEF737
:102C50003AFC6620FEF737FC0020FEF734FC5520D6
:102C6000FEF731FC0020FEF72EFC5520FEF72BFC72
:102C70000020FEF728FC4520FEF725FC0020FEF78B
:102C800022FC4320FEF71FFC0020FEF71CFC442022
:102C9000FEF719FC0020FEF716FCE720FEF702FC09
:102CA0003220FEF710FC0020FEF70DFC5520FEF749
:102CB0000AFC0020FEF707FC7620FEF704FC00204B
:102CC000FEF701FC6620FEF7FEFB0020FEF7FBFB93
:102CD0006720FEF7F8FB0020FEF7F5FB6720FEF704
:102CE000F2FB0020FEF7EFFB8720FEF7ECFB002055
:102CF000FEF7E9FB9920FEF7E6FB0020FEF7E3FB79
:102D0000BB20FEF7E0FB0020FEF7DDFB9920FEF77D
:102D1000DAFB0020FEF7D7FB7720FEF7D4FB00207C
:102D2000FEF7D1FB4420FEF7CEFB0020FEF7CBFBE5
:102D30005620FEF7C8FB0020FEF7C5FB2320FEF758
:102D4000C2FB0020FEF7BFFB3320FEF7BCFB0020D8
:102D5000FEF7B9FB4520FEF7B6FB0020FEF7B3FBFC
:102D6000E820FEF79FFB0020FEF7ADFB0020FEF7FA
:102D7000AAFB9920FEF7A7FB0020FEF7A4FB872003
:102D8000FEF7A1FB0020FEF79EFB8820FEF79BFBD1
:102D90000020FEF798FB7720FEF795FB0020FEF75A
:102DA00092FB6620FEF78FFB0020FEF78CFB88204D
:102DB000FEF789FB0020FEF786FBAA20FEF783FBC7
:102DC0000020FEF780FBBB20FEF77DFB0020FEF716
:102DD0007AFB9920FEF777FB0020FEF774FB662054
:102DE000FEF771FB0020FEF76EFB5520FEF76BFB34
:102DF0000020FEF768FB5520FEF765FB0020FEF77C
:102E000062FB4420FEF75FFB0020FEF75CFB4420E2
:102E1000FEF759FB0020FEF756FB5520FEF753FB4B
:102E20000020FEF750FBE920FEF73CFBAA20FEF74E
:102E30004AFB0020FEF747FB0020FEF744FB002082
:102E4000FEF741FB0020FEF72DFBAA20FEF73BFB1F
:102E5000CF20FEF727FB0020FEF735FB0020FEF712
:102E600032FB0020FEF72FFB0020FEF72CFB00209A
:102E7000FEF729FB0020FEF726FB0020FEF723FBD0
:102E80000020FEF720FB0020FEF71DFB0020FEF7D0
:102E90001AFB0020FEF717FB0020FEF714FB0020B2
:102EA000FEF711FB0020FEF70EFB0020FEF70BFBE8
:102EB0000020FEF708FB0020FEF705FBF020FEF7E0
:102EC000F1FA0020FEF7FFFA5020FEF7FCFA00208E
:102ED000FEF7F9FA0020FEF7F6FA0020FEF7F3FA03
:102EE000F320FEF7DFFA0020FEF7EDFAF920FEF7F7
:102EF000D9FA0620FEF7E7FA1020FEF7E4FA2920B7
:102F0000FEF7E1FA0020FEF7DEFA3A20FEF7CAFAF1
:102F10005520FEF7D8FA1120FEF7C4FA642001F01C
:102F2000CBFE2920FEF7BEFA3520FEF7BBFA0020C3
:102F3000FEF7C9FA5120FEF7B5FAFF20FEF7C3FAF3
:102F40005320FEF7AFFA2C20FEF7BDFA5520FEF70E
:102F5000A9FA8220FEF7B7FA2C20FEF7A3FAFEF7B3
:102F6000E6BD55214FF47040FEF7CBFAAA214FF28F
:102F70000100FEF7C6FA52214FF20200FEF7C1FA35
:102F800008214FF20300FEF7BCFA01214FF20400C2
:102F9000FEF7B7FA0D214FF43040FEF7B2FA0D21DB
:102FA0004BF20100FEF7ADFA0D214BF20200FEF7E5
:102FB000A8FA34214FF43640FEF7A3FA34214BF23D
:102FC0000160FEF79EFA34214BF20260FEF799FA97
:102FD0000D214FF43140FEF794FA0D214BF2011010
:102FE000FEF78FFA0D214BF20210FEF78AFA342118
:102FF0004FF43740FEF785FA34214BF20170FEF7AB
:1030000080FA34214BF20270FEF77BFA00214FF474
:103010003240FEF776FA00214BF20120FEF771FAFA
:1030200000214BF20220FEF76CFA24214FF43840C5
:10303000FEF767FA24214BF60100FEF762FA24211D
:103040004BF60200FEF75DFA01214FF43F40FEF718
:1030500058FA0F214FF43340FEF753FA0F214BF289
:103060000130FEF74EFA0F214BF20230FEF749FA1B
:1030700034214FF43940FEF744FA34214BF6011065
:10308000FEF73FFA34214BF60210FEF73AFA082118
:103090004FF43540FEF735FA08214BF20150FEF7A8
:1030A00030FA08214BF20250FEF72BFA03214FF4BD
:1030B0004240FEF726FA24214FF43A40FEF721FA67
:1030C00024214BF60120FEF71CFA24214BF60220A6
:1030D000FEF717FA00214FF43C40FEF712FA782170
:1030E0004BF60140FEF70DFA00214BF60240FEF7C9
:1030F00008FA00214FF43D40FEF703FA78214BF621
:103100000150FEF7FEF900214BF60250FEF7F9F9E7
:1031100000214FF43E40FEF7F4F964214BF60160C4
:10312000FEF7EFF900214FF45140FEF7EAF93321A1
:103130004DF20110FEF7E5F900214DF20210FEF705
:10314000E0F934214DF20310FEF7DBF900214DF2D6
:103150000410FEF7D6F93A214DF20510FEF7D1F929
:1031600000214DF20610FEF7CCF94A214DF207106E
:10317000FEF7C7F900214DF20810FEF7C2F95C21F5
:103180004DF20910FEF7BDF900214DF20A10FEF7CD
:10319000B8F981214DF20B10FEF7B3F900214DF281
:1031A0000C10FEF7AEF9A6214DF20D10FEF7A9F9AD
:1031B00000214DF20E10FEF7A4F9E5214DF20F109B
:1031C000FEF79FF901214DF21010FEF79AF9132135
:1031D0004DF21110FEF795F901214DF21210FEF794
:1031E00090F954214DF21310FEF78BF901214DF2A5
:1031F0001410FEF786F982214DF21510FEF781F9C1
:1032000001214DF21610FEF77CF9CA214DF217107C
:10321000FEF777F902214DF21810FEF772F900213E
:103220004DF21910FEF76DF902214DF21A10FEF75A
:1032300068F901214DF21B10FEF763F902214DF2EE
:103240001C10FEF75EF934214DF21D10FEF759F9FE
:1032500002214DF21E10FEF754F967214DF21F10A6
:10326000FEF74FF902214DF22010FEF74AF98421B2
:103270004DF22110FEF745F902214DF22210FEF722
:1032800040F9A4214DF22310FEF73BF902214DF243
:103290002410FEF736F9B7214DF22510FEF731F96B
:1032A00002214DF22610FEF72CF9CF214DF2271006
:1032B000FEF727F902214DF22810FEF722F9DE2150
:1032C0004DF22910FEF71DF902214DF22A10FEF7EA
:1032D00018F9F2214DF22B10FEF713F902214DF2ED
:1032E0002C10FEF70EF9FE214DF22D10FEF709F914
:1032F00003214DF22E10FEF704F910214DF22F108C
:10330000FEF7FFF803214DF23010FEF7FAF83321F3
:103310004DF23110FEF7F5F803214DF23210FEF7B1
:10332000F0F86D214DF23310FEF7EBF800214FF469
:103330005240FEF7E6F833214DF20120FEF7E1F8A6
:1033400000214DF20220FEF7DCF834214DF203207B
:10335000FEF7D7F800214DF20420FEF7D2F83A210B
:103360004DF20520FEF7CDF800214DF20620FEF7C4
:10337000C8F84A214DF20720FEF7C3F800214DF2AC
:103380000820FEF7BEF85C214DF20920FEF7B9F8DF
:1033900000214DF20A20FEF7B4F881214DF20B20F6
:1033A000FEF7AFF800214DF20C20FEF7AAF8A62197
:1033B0004DF20D20FEF7A5F800214DF20E20FEF78C
:1033C000A0F8E5214DF20F20FEF79BF801214DF208
:1033D0001020FEF796F813214DF21120FEF791F818
:1033E00001214DF21220FEF78CF854214DF21320EA
:1033F000FEF787F801214DF21420FEF782F88221B2
:103400004DF21520FEF77DF801214DF21620FEF752
:1034100078F8CA214DF21720FEF773F802214DF219
:103420001820FEF76EF800214DF21920FEF769F81A
:1034300002214DF21A20FEF764F801214DF21B2003
:10344000FEF75FF802214DF21C20FEF75AF83421F6
:103450004DF21D20FEF755F802214DF21E20FEF719
:1034600050F867214DF21F20FEF74BF802214DF274
:103470002020FEF746F884214DF22120FEF741F886
:1034800002214DF22220FEF73CF8A4214DF2232028
:10349000FEF737F802214DF22420FEF732F8B7216B
:1034A0004DF22520FEF72DF802214DF22620FEF7E1
:1034B00028F8CF214DF22720FEF723F802214DF204
:1034C0002820FEF71EF8DE214DF22920FEF719F81C
:1034D00002214DF22A20FEF714F8F2214DF22B20A2
:1034E000FEF70FF802214DF22C20FEF70AF8FE211C
:1034F0004DF22D20FEF705F803214DF22E20FEF7A8
:1035000000F810214DF22F20FDF7FBFF03214DF2B3
:103510003020FDF7F6FF33214DF23120FDF7F1FFAA
:1035200003214DF23220FDF7ECFF6D214DF23320E7
:10353000FDF7E7FF00214FF45340FDF7E2FF332191
:103540004DF20130FDF7DDFF00214DF20230FDF7B5
:10355000D8FF34214DF20330FDF7D3FF00214DF2A7
:103560000430FDF7CEFF3A214DF20530FDF7C9FFDB
:1035700000214DF20630FDF7C4FF4A214DF207301D
:10358000FDF7BFFF00214DF20830FDF7BAFF5C21C7
:103590004DF20930FDF7B5FF00214DF20A30FDF77D
:1035A000B0FF81214DF20B30FDF7ABFF00214DF252
:1035B0000C30FDF7A6FFA6214DF20D30FDF7A1FF5F
:1035C00000214DF20E30FDF79CFFE5214DF20F304A
:1035D000FDF797FF01214DF21030FDF792FF132107
:1035E0004DF21130FDF78DFF01214DF21230FDF744
:1035F00088FF54214DF21330FDF783FF01214DF276
:103600001430FDF77EFF82214DF21530FDF779FF72
:1036100001214DF21630FDF774FFCA214DF217302B
:10362000FDF76FFF02214DF21830FDF76AFF002110
:103630004DF21930FDF765FF02214DF21A30FDF70A
:1036400060FF01214DF21B30FDF75BFF02214DF2BF
:103650001C30FDF756FF34214DF21D30FDF751FFB0
:1036600002214DF21E30FDF74CFF67214DF21F3055
:10367000FDF747FF02214DF22030FDF742FF842184
:103680004DF22130FDF73DFF02214DF22230FDF7D2
:1036900038FFA4214DF22330FDF733FF02214DF214
:1036A0002430FDF72EFFB7214DF22530FDF729FF1D
:1036B00002214DF22630FDF724FFCF214DF22730B5
:1036C000FDF71FFF02214DF22830FDF71AFFDE2122
:1036D0004DF22930FDF715FF02214DF22A30FDF79A
:1036E00010FFF2214DF22B30FDF70BFF02214DF2BE
:1036F0002C30FDF706FFFE214DF22D30FDF701FFC6
:1037000003214DF22E30FDF7FCFE10214DF22F303B
:10371000FDF7F7FE03214DF23030FDF7F2FE3321C5
:103720004DF23130FDF7EDFE03214DF23230FDF761
:10373000E8FE6D214DF23330FDF7E3FE00214FF43A
:103740005440FDF7DEFE33214DF20140FDF7D9FE76
:1037500000214DF20240FDF7D4FE34214DF203402A
:10376000FDF7CFFE00214DF20440FDF7CAFE3A21DD
:103770004DF20540FDF7C5FE00214DF20640FDF774
:10378000C0FE4A214DF20740FDF7BBFE00214DF27D
:103790000840FDF7B6FE5C214DF20940FDF7B1FE91
:1037A00000214DF20A40FDF7ACFE81214DF20B40A5
:1037B000FDF7A7FE00214DF20C40FDF7A2FEA62169
:1037C0004DF20D40FDF79DFE00214DF20E40FDF73C
:1037D00098FEE5214DF20F40FDF793FE01214DF2D9
:1037E0001040FDF78EFE13214DF21140FDF789FECA
:1037F00001214DF21240FDF784FE54214DF2134099
:10380000FDF77FFE01214DF21440FDF77AFE822183
:103810004DF21540FDF775FE01214DF21640FDF702
:1038200070FECA214DF21740FDF76BFE02214DF2EA
:103830001840FDF766FE00214DF21940FDF761FECC
:1038400002214DF21A40FDF75CFE01214DF21B40B2
:10385000FDF757FE02214DF21C40FDF752FE3421C8
:103860004DF21D40FDF74DFE02214DF21E40FDF7C9
:1038700048FE67214DF21F40FDF743FE02214DF245
:103880002040FDF73EFE84214DF22140FDF739FE38
:1038900002214DF22240FDF734FEA4214DF22340D7
:1038A000FDF72FFE02214DF22440FDF72AFEB7213D
:1038B0004DF22540FDF725FE02214DF22640FDF791
:1038C00020FECF214DF22740FDF71BFE02214DF2D5
:1038D0002840FDF716FEDE214DF22940FDF711FECE
:1038E00002214DF22A40FDF70CFEF2214DF22B4051
:1038F000FDF707FE02214DF22C40FDF702FEFE21EE
:103900004DF22D40FDF7FDFD03214DF22E40FDF758
:10391000F8FD10214DF22F40FDF7F3FD03214DF28C
:103920003040FDF7EEFD33214DF23140FDF7E9FD6A
:1039300003214DF23240FDF7E4FD6D214DF233409D
:10394000FDF7DFFD00214FF45540FDF7DAFD33218F
:103950004DF20150FDF7D5FD00214DF20250FDF76B
:10396000D0FD34214DF20350FDF7CBFD00214DF287
:103970000450FDF7C6FD3A214DF20550FDF7C1FD9B
:1039800000214DF20650FDF7BCFD4A214DF20750D3
:10399000FDF7B7FD00214DF20850FDF7B2FD5C21A7
:1039A0004DF20950FDF7ADFD00214DF20A50FDF733
:1039B000A8FD81214DF20B50FDF7A3FD00214DF232
:1039C0000C50FDF79EFDA6214DF20D50FDF799FD1F
:1039D00000214DF20E50FDF794FDE5214DF20F5000
:1039E000FDF78FFD01214DF21050FDF78AFD1321E7
:1039F0004DF21150FDF785FD01214DF21250FDF7FA
:103A000080FD54214DF21350FDF77BFD01214DF255
:103A10001450FDF776FD82214DF21550FDF771FD32
:103A200001214DF21650FDF76CFDCA214DF21750E1
:103A3000FDF767FD02214DF21850FDF762FD0021F0
:103A40004DF21950FDF75DFD02214DF21A50FDF7C0
:103A500058FD01214DF21B50FDF753FD02214DF29F
:103A60001C50FDF74EFD34214DF21D50FDF749FD70
:103A700002214DF21E50FDF744FD67214DF21F500B
:103A8000FDF73FFD02214DF22050FDF73AFD842164
:103A90004DF22150FDF735FD02214DF22250FDF788
:103AA00030FDA4214DF22350FDF72BFD02214DF2F4
:103AB0002450FDF726FDB7214DF22550FDF721FDDD
:103AC00002214DF22650FDF71CFDCF214DF227506B
:103AD000FDF717FD02214DF22850FDF712FDDE2102
:103AE0004DF22950FDF70DFD02214DF22A50FDF750
:103AF00008FDF2214DF22B50FDF703FD02214DF29E
:103B00002C50FDF7FEFCFE214DF22D50FDF7F9FC87
:103B100003214DF22E50FDF7F4FC10214DF22F50F1
:103B2000FDF7EFFC03214DF23050FDF7EAFC3321A5
:103B30004DF23150FDF7E5FC03214DF23250FDF717
:103B4000E0FC6D214DF23350FDF7DBFC00214FF41A
:103B50005640FDF7D6FC33214DF20160FDF7D1FC54
:103B600000214DF20260FDF7CCFC34214DF20360E0
:103B7000FDF7C7FC00214DF20460FDF7C2FC3A21BD
:103B80004DF20560FDF7BDFC00214DF20660FDF72A
:103B9000B8FC4A214DF20760FDF7B3FC00214DF25D
:103BA0000860FDF7AEFC5C214DF20960FDF7A9FC51
:103BB00000214DF20A60FDF7A4FC81214DF20B605B
:103BC000FDF79FFC00214DF20C60FDF79AFCA62149
:103BD0004DF20D60FDF795FC00214DF20E60FDF7F2
:103BE00090FCE5214DF20F60FDF78BFC01214DF2B9
:103BF0001060FDF786FC13214DF21160FDF781FC8A
:103C000001214DF21260FDF77CFC54214DF213604E
:103C1000FDF777FC01214DF21460FDF772FC822163
:103C20004DF21560FDF76DFC01214DF21660FDF7B8
:103C300068FCCA214DF21760FDF763FC02214DF2CA
:103C40001860FDF75EFC00214DF21960FDF759FC8C
:103C500002214DF21A60FDF754FC01214DF21B6068
:103C6000FDF74FFC02214DF21C60FDF74AFC3421A8
:103C70004DF21D60FDF745FC02214DF21E60FDF77F
:103C800040FC67214DF21F60FDF73BFC02214DF225
:103C90002060FDF736FC84214DF22160FDF731FCF8
:103CA00002214DF22260FDF72CFCA4214DF223608D
:103CB000FDF727FC02214DF22460FDF722FCB7211D
:103CC0004DF22560FDF71DFC02214DF22660FDF747
:103CD00018FCCF214DF22760FDF713FC02214DF2B5
:103CE0002860FDF70EFCDE214DF22960FDF709FC8E
:103CF00002214DF22A60FDF704FCF2214DF22B6007
:103D0000FDF7FFFB02214DF22C60FDF7FAFBFE21CF
:103D10004DF22D60FDF7F5FB03214DF22E60FDF70E
:103D2000F0FB10214DF22F60FDF7EBFB03214DF26C
:103D30003060FDF7E6FB33214DF23160FDF7E1FB2A
:103D400003214DF23260FDF7DCFB6D214DF2336053
:103D5000FDF7D7FB55214FF47040FDF7D2FBAA21A8
:103D60004FF20100FDF7CDFB52214FF20200FDF7AB
:103D7000C8FB08214FF20300FDF7C3FB00214FF2FF
:103D80000400FDF7BEFBCC214FF43140FDF7B9FB39
:103D900000214BF20110FDF7B4FB05214FF4364032
:103DA000FDF7AFFB70214FF43740FDF7AAFB702100
:103DB0004BF20170FDF7A5FB01214FF43840FDF7F0
:103DC000A0FB03214BF60100FDF79BFB03214BF603
:103DD0000200FDF796FB03214BF60300FDF791FB74
:103DE00002214FF43C40FDF78CFB00214BF60140D3
:103DF000FDF787FB00214BF60240FDF782FBD02147
:103E00004FF44940FDF77DFB02214CF60110FDF710
:103E100078FB50214CF60210FDF773FB50214CF655
:103E20000310FDF76EFB50214CF60410FDF769FB03
:103E300000214FF45450FDF764FB55214FF46850B6
:103E4000FDF75FFB4FF48850FDF72CFB7820FDF762
:103E50001FFB4FF42450FDF725FBFDF768BEE22061
:103E6000FDF720FB1D20FDF72EFB0220FDF72BFBAD
:103E70000420FDF728FB6420FDF70AFBE020FDF796
:103E800011FB0120FDF71FFB0A2000F015FFE020C9
:103E9000FDF708FB0320FDF716FB0C2000F00CFFDC
:103EA0000120FDF7FFFA0A2000F006FFE620FDF7EB
:103EB000F9FA2F20FDF707FBFF20FDF704FBFF2099
:103EC000FDF701FBB020FDF7EDFA2020FDF7FBFA2E
:103ED0000020FDF7F8FA0120FDF7F5FA40F2DF10B7
:103EE000FDF7F1FA0120FDF7EEFA40F23F10FDF781
:103EF000EAFA0020FDF7E7FAB420FDF7D3FA022032
:103F0000FDF7E1FA40F2DF20FDF7DDFA0020FDF7D2
:103F1000DAFA2E20FDF7D7FA0020FDF7D4FA0020B8
:103F2000FDF7D1FA0020FDF7CEFA0020FDF7CBFA1D
:103F3000B620FDF7B7FA0120FDF7C5FA4FF4B670C9
:103F4000FDF7C1FA0020FDF7BEFA1720FDF7BBFA16
:103F50001520FDF7B8FA0020FDF7B5FA0020FDF7AF
:103F6000B2FAF020FDF79EFA0320FDF7ACFA292003
:103F7000FDF798FAD020FDF795FA0020FDF7A3FA97
:103F8000BE20FDF78FFA0520FDF79DFAFE20FDF714
:103F90009AFA0120FDF797FA0020FDF794FA002025
:103FA000FDF791FA0020FDF78EFAB820FDF77AFAB6
:103FB0000320FDF788FA0120FDF785FABA20FDF706
:103FC00071FA0120FDF77FFA6420FDF7A9FCFDF7E7
:103FD000AEBD00BF2DE9F04F83B08046A2EB000AD2
:103FE0008946A3EB010BBAF1000F0DDD012200920F
:103FF000BBF1000F14DD01230193DA451CDD5646A9
:1040000000252F462C461BE0BAF1000F05D0A0EB8F
:10401000020A4FF0FF320092EAE7CDF800A0E7E78E
:10402000BBF1000F05D0A1EB030B4FF0FF33019361
:10403000E3E7CDF804B0E0E75E46E1E70134A4B27F
:10404000731C9C4212DC1FFA89F11FFA88F0FDF7FD
:10405000DBFB57445D44BE4202DABF1B009B984421
:10406000AE42EBDAAD1B019B9944E7E703B0BDE834
:10407000F08F00002DE9F04F83B0824688461F463E
:104080009DF830B013F0070318BF012303EBD703EB
:10409000790811FB03F3DBB20093203AD3B201930A
:1040A00044464FF0000949E0019B03EB43032E4ACD
:1040B00002EB830313F80950002623E02B4B019AEF
:1040C00003EB021313F80950F6E7019B03EBC3035C
:1040D000274A02EB830313F80950EDE7254B1A68D2
:1040E00021465046FDF79EFB6D00EDB20134A4B2AF
:1040F000214B5B88A34233D9A4EB0803BB4210D009
:104100000136F6B2072E15D815F0800FE6D1BBF1B7
:10411000000FE9D1194B1A6821465046FDF782FB82
:10412000E2E70AF1010A1FFA8AFA134B1B8853458A
:1041300016D9444609F101095FFA89F9009B9945AE
:104140000ED20C2FB0D0102FB8D0182FBDD0202FEA
:1041500006D10B4B019A03EBC21313F80950ABE7DE
:1041600003B0BDE8F08F00BFFCEA000870EF000864
:1041700060F50008040000204C0B00200000002027
:10418000BC0201080246012002E002FB00F01946D1
:104190004B1EDBB20029F8D1704700002DE9F04733
:1041A00082B08246894690461D469DF828600027C9
:1041B0003C4619E0700800FB04A00023009333463E
:1041C0002022494680B2FFF755FF0BE070083032DD
:1041D00000FB04A0002300933346D2B2494680B2CC
:1041E000FFF748FF0134E4B2AC421CD2291BC9B22C
:1041F0000139C9B20A20FFF7C5FFB8FBF0F00B4A3E
:10420000A2FB003C4FEADC0C0CEB8C0CA0EB4C0C42
:104210005FFA8CF2002FD9D16B1E9C42D6DA002AAD
:10422000C8D00127D2E702B0BDE8F087CDCCCCCC16
:1042300010B58EB000230793089309930A930B934C
:104240000C930D93009301930293039304930593AE
:10425000069319484FF02042026002F582724260D4
:1042600006228260C3600361102242618361C361E0
:10427000036243624FF480518162C3624FF4804114
:104280000163436383634364022307930F24089409
:10429000052109910B9211230C9301940291049230
:1042A00005936A4607A901F0BDFF08B90EB010BD1D
:1042B00000F0C4F9FAE700BFFC0A002008B5FDF7DA
:1042C0008DF808BD30B58FB0002409940A940B9482
:1042D0000C940D940194324B1A6B42F080021A63D5
:1042E0001A6B02F080020192019A02941A6B42F05A
:1042F00004021A631A6B02F004020292029A0394F7
:104300001A6B42F001021A631A6B02F00102039267
:10431000039A04941A6B42F020021A631A6B02F09B
:1043200020020492049A05941A6B42F010021A6358
:104330001A6B02F010020592059A06941A6B42F06D
:1043400002021A631A6B02F002020692069A07949E
:104350001A6B42F008021A631A6B02F00802079205
:10436000079A08941A6B42F040021A631B6B03F021
:1043700040030893089B0B4D01224FF4004128464F
:1043800001F026FC4FF40043099301230A930B9498
:104390000C9409A9284601F029FB0FB030BD00BFDD
:1043A000003802400004024010B5002424E007EE6B
:1043B000904AF8EEE77A9FED147A67EE877A9FEDE0
:1043C000137AC7EE877A17EE900AFCF77DF841EC76
:1043D000100B09F0A1F951EC100B00220C4BFCF76B
:1043E000DDFB07A3D3E90023FBF710FFFCF7C4F8BC
:1043F000084B23F814000134B4F57A7FD7DB10BDE5
:104400000000000000FC9F408784854300007A4440
:104410000000A0402442002000B583B0FFF7C4FF95
:10442000002100914FF47A73034A044800F0B8FF6A
:1044300003B05DF804FB00BF24420020840A002082
:10444000014B01221A6070473C3A0020704700007F
:1044500070B501260021084624E007EE906AF8EEC8
:10446000E77A9FED127A67EE877AFCEEE77A17EE2D
:10447000903A9DB20E4B33F8163007EE903AF8EEB4
:10448000E77A9FED0C7A67EE877AFCEEE77A17EE13
:10449000903A9CB223462A46FFF79CFD0136B6B2FD
:1044A00021462846B6F57A7FD7D370BDC3F5A83E1E
:1044B000403A0020010C403D70B501264FF4CD710B
:1044C000002025E04FF4967306FB03F3124C84FBA7
:1044D0000324DB17C3EB6414104B03EB860393ED4B
:1044E000007ADFED0F7A27EE277ADFED0E6AC7EE4E
:1044F000267AFDEEE77A17EE905AC5F5CD75ABB288
:10450000A2B289B280B2FFF765FD05362946204682
:10451000B6F5FA7FD6DB70BDD34D62109C2A002021
:104520000000F0420000FA4310B582B0C3234FF4FC
:10453000A07219460020FFF74DFD0C2400940423BF
:104540000A22C8211420FFF729FE00940423142214
:10455000C8214020FFF722FE009404231E22C82118
:104560006C20FFF71BFE009404232822C82198200A
:10457000FFF714FE009404233222C821C420FFF761
:104580000DFE009404233C22C821F020FFF706FE14
:10459000009404234622C8214FF48C70FFF7FEFDDF
:1045A0000023A022C3211046FFF714FD009402232C
:1045B0005A220021AA20FFF7F1FD00940223502285
:1045C0001421AA20FFF7EAFD0094022346222821A5
:1045D000AA20FFF7E3FD009402233C221146AA2003
:1045E000FFF7DCFD0094022332225021AA20FFF7BE
:1045F000D5FD0094022328226421AA20FFF7CEFDD6
:10460000009402231E227821AA20FFF7C7FD009400
:10461000022314228C21AA20FFF7C0FD009402235C
:104620000A22A021AA20FFF7B9FD0094022300224C
:10463000B421AA20FFF7B2FD02B010BD72B6FEE7AA
:1046400000B595B03022002108A803F035F800230A
:104650000393049305930693079301931F4A116CE8
:1046600041F080511164126C02F080520192019A63
:1046700002931B4A116841F480411160126802F4F0
:1046800080420292029A0222089201210B9110218B
:104690000C910E920F9308231093A823119312925A
:1046A0000423139308A801F099FA98B90F230393F0
:1046B00002230493002305934FF4A05306934FF471
:1046C00080530793052103A801F0D6FC20B915B04B
:1046D0005DF804FBFFF7B2FFFFF7B0FF00380240C0
:1046E0000070004010B500F0BBFAFFF7A9FFFFF71C
:1046F000E9FDFCF747FEFCF729FDFCF7BFFD00F0E4
:104700005FF900F0F9F900F093F9FFF791FD4248E5
:1047100001F0E4FD414801F0E1FD414800F0A6FB55
:10472000FFF77AFE322000F0C7FAFDF7C7F94FF61F
:10473000FF70FDF7A9F900223A4B1A6001234FF4EC
:104740007A71394802F016FA64E00134A4B2B4F583
:104750007A7F11D2354B1B68012BF6D1334B0022E7
:104760001A602F4800F02AFC81B2314B23F8141054
:10477000304802F0F3FFE8E7002312E02C4A32F859
:10478000132007EE902A5900F8EE677A2A4A02EBC6
:10479000C300C0ED007A013102EB810200211160FB
:1047A0000133B3F57A7FE9DB234C21461E4802F042
:1047B000A5FD4FF47A722149204602F02FFE002217
:1047C00000E00132B2F57A7F17DA1C4B03EB82036B
:1047D000D3ED007A9FED1A7A67EE877AC3ED007AFF
:1047E0009FED187AF4EEC77AF1EE10FAE9DD134B7B
:1047F00003EB820383ED007AE3E74FF6FF70FDF7EA
:1048000043F9FFF791FEFFF723FEFFF755FE0A205D
:1048100000F052FA00249AE7F8490020404A0020AC
:10482000DC09002004000020104200203C3A002057
:10483000403A00203C3201085C0B00209C2A0020FA
:104840006F12033B0000FA4382B0002100910B4B32
:104850005A6C42F480425A645A6C02F480420092CC
:10486000009A01911A6C42F080521A641B6C03F09A
:1048700080530193019B02B0704700BF0038024093
:10488000FEE7FEE7FEE7FEE7FEE77047704770478A
:1048900008B500F0FFF908BD08B5024800F0B8FF00
:1048A00008BD00BF980A002008B5024800F08BFB45
:1048B00008BD00BFDC09002008B5024801F056FD24
:1048C00008BD00BFF849002008B5034800F003FE0A
:1048D000024801F04BFD08BD840A0020404A002038
:1048E00008B5024800F094FF08BD00BF240A00206C
:1048F0000120704708B502F0B5FE162303604FF0A3
:10490000FF3008BD08B54FF0FF31FFF7F3FFFEE7BA
:1049100070B50C461646002506E0AFF30080214630
:1049200001F8010B01350C46B542F6DB304670BD8F
:1049300070B50C461646002504E014F8010B00F093
:104940002FF90135B542F8DB304670BD4FF0FF302E
:1049500070474FF400534B600020704701207047B0
:104960000020704710B503460C4A0D490D480068F9
:1049700040B10C4800680344521A934206D8094AD1
:10498000136010BD0748084C0460F2E702F06AFEAD
:104990000C2303604FF0FF30F3E700BF000002205C
:1049A00000040000F4490020184B0020034AD2F80C
:1049B000883043F47003C2F88830704700ED00E09F
:1049C00000B587B0002302930393049305930093EB
:1049D00001931548154A0260632242608360C72232
:1049E000C26003618023836101F0E2FD98B94FF456
:1049F0008053029302A90C4801F013FE70B92023E2
:104A00000093002301936946074801F089FE40B9ED
:104A100007B05DF804FBFFF711FEE8E7FFF70EFEB5
:104A2000EDE7FFF70BFEF3E7F84900200004004034
:104A300000B583B00023009301931048104A026030
:104A400063224260836042F20F73C36080238361FC
:104A500001F0AEFD58B9202300930023019369466D
:104A6000064801F05DFE28B903B05DF804FBFFF7CE
:104A7000E5FDF0E7FFF7E2FDF6E700BF404A002062
:104A80000010004000B583B00368184A934205D077
:104A9000174A934216D003B05DF804FB0021009141
:104AA000144B1A6C42F002021A641B6C03F00203EE
:104AB0000093009B0A461D2000F006FC1D2000F01C
:104AC0003BFCE8E7002201920A4B196C41F010010F
:104AD00019641B6C03F010030193019B0121362024
:104AE00000F0F2FB362000F027FCD4E70004004081
:104AF000001000400038024008B50A480A4B036025
:104B00004FF4E133436000238360C36003610C22F0
:104B100042618361C36101F017FF00B908BDFFF76F
:104B20008DFDFBE7884A00200010014000B589B0E8
:104B3000002303930493059306930793026803F1FC
:104B4000804303F588339A4202D009B05DF804FB34
:104B50000021019103F594335A6C42F010025A641B
:104B60005A6C02F010020192019A02911A6B42F003
:104B700001021A631B6B03F001030293029B4FF4C3
:104B8000C06303930223049303230693072307932D
:104B900003A9024800F02AFFD7E700BF0000024047
:104BA00000B583B001904FF6FF73012201A90348BD
:104BB00001F0F9FE019803B05DF804FB884A00207B
:104BC000DFF834D00D480E490E4A002302E0D458D5
:104BD000C4500433C4188C42F9D30B4A0B4C002345
:104BE00001E013600432A242FBD3FFF7DFFE02F0C4
:104BF0003FFDFFF777FD7047000002200000002016
:104C0000C00900204CC00108C0090020184B00203A
:104C1000FEE7000010B504460E4B18784FF47A7387
:104C2000B3FBF0F30C4A1068B0FBF3F000F092FB1A
:104C300068B90F2C01D901200AE0002221464FF06B
:104C4000FF3000F041FB054B1C60002000E001201C
:104C500010BD00BF0C000020080000201000002044
:104C600008B50B4B1A6842F400721A601A6842F4D5
:104C700080621A601A6842F480721A60032000F0A1
:104C800011FB0F20FFF7C6FFFFF7DEFD002008BD78
:104C9000003C0240034A1168034B1B780B4413602D
:104CA000704700BFCC4A00200C000020014B186860
:104CB000704700BFCC4A002038B50446FFF7F6FF26
:104CC0000546B4F1FF3F02D0044B1B781C44FFF7AC
:104CD000EDFF401BA042FAD338BD00BF0C000020FE
:104CE0004A4B5A6822F440325A605A6841680A4373
:104CF0005A600268536823F48073536002685368F3
:104D0000016943EA012353600268536823F040734A
:104D100053600268536881680B435360026893686C
:104D200023F40063936002689368C1680B43936047
:104D3000826A374B9A4257D00268936823F07063B7
:104D4000936002689368816A0B439360026893687A
:104D500023F04053936002689368C16A0B439360E9
:104D60000268936823F00203936002689368017EEF
:104D700043EA4103936090F82030002B3FD0026853
:104D8000536843F4006353600268536823F460433C
:104D9000536001684B68426A013A43EA42334B6010
:104DA0000268D36A23F47003D3620168CB6AC269D4
:104DB000013A43EA0253CB620268936823F400731A
:104DC00093600268936890F8301043EA412393603F
:104DD0000268936823F48063936002689368416972
:104DE00043EA8123936070470268936823F07063FD
:104DF00093600268936823F040539360B0E70268C1
:104E0000536823F400635360CAE700BF00230140E6
:104E10000100000F38B310B50446036C43B1236C96
:104E200013F0100F0BD00120002384F83C3010BD8C
:104E3000FCF7C4F90023636484F83C30EFE7236C8B
:104E400023F4885323F0020343F002032364204633
:104E5000FFF746FF00206064236C23F0030343F058
:104E600001032364E0E701207047000082B00023C3
:104E7000019390F83C30012B00F09080012380F8E2
:104E80003C3003689A6812F0010F13D19A6842F01F
:104E900001029A60444B1B68444AA2FB03239B0C0B
:104EA00003EB4303019302E0019B013B0193019B50
:104EB000002BF9D10268936813F0010F63D0036CE3
:104EC00023F4E06323F0010343F480730364536825
:104ED00013F4806F05D0036C23F4405343F48053E4
:104EE0000364036C13F4805F22D0436C23F0060349
:104EF0004364002380F83C306FF0220313600268A3
:104F0000536843F0806343F020035360284B5B6891
:104F100013F01F0F27D10368264A934211D002F5E0
:104F20008072934207D0244A934214D0002033E089
:104F300000234364DDE702F50072526812F01F0F90
:104F4000F1D19A6812F0405F2AD19A6842F080420B
:104F50009A60002020E002F58072526812F0100F73
:104F6000EFD0002018E00368124A934201D00020DD
:104F700012E09A6812F0405F14D19A6842F08042C1
:104F80009A60002008E0036C43F010030364436C54
:104F900043F001034364002002B070470220FBE7A6
:104FA0000020F9E70020F7E70800002083DE1B431C
:104FB0000023014000200140002201400368D86C1A
:104FC00070477047704770B5044603681E685D6897
:104FD00016F0020F2FD005F0200262B3026C12F01F
:104FE000100F03D1026C42F4007202649A6812F04E
:104FF000405F19D1227EBAB9DA6A12F4700F03D079
:105000009A6812F4806F0FD15A6822F020025A6019
:10501000236C23F480732364236C13F4805F03D127
:10502000236C43F0010323642046FFF709FA236849
:105030006FF012021A6005F0800316F0040F37D0EB
:10504000002B35D0236C13F0100F03D1236C43F4E5
:105050000053236423689A6812F4401F21D19A6B8D
:1050600012F4401F03D09A6812F4806F19D15A6865
:1050700012F4806F15D19A6812F0405F11D1227E30
:105080007AB95A6822F080025A60236C23F4805364
:105090002364236C13F4807F03D1236C43F001035A
:1050A0002364204600F0FCF823686FF00C021A60BD
:1050B00005F0400316F0010F05D023B123681B68EB
:1050C00013F0010F06D105F0806516F0200F00D017
:1050D00065B970BD236C43F4803323642046FFF729
:1050E00070FF23686FF001021A60ECE7636C43F015
:1050F0000203636423686FF020051D602046FFF7FC
:1051000061FF23681D60E4E730B482B0002301939F
:1051100090F83C30012B00F0BB80012380F83C303C
:105120000B68092B41D90468E2689BB203EB430387
:105130001E3B4FF0070C0CFA03F322EA0303E36073
:105140000468E2680B8803EB43031E3B8D6805FA95
:1051500003F31343E3604B68062B3DD80468626B8E
:1051600003EB8303053B4FF01F0C0CFA03F322EA19
:10517000030363630468626B4B6803EB8303053BC3
:10518000B1F800C00CFA03F3134363630268414BA8
:105190009A4251D002683F4B9A4256D0002380F881
:1051A0003C30184602B030BC7047046822699BB29C
:1051B00003EB43034FF0070C0CFA03F322EA03035B
:1051C0002361046822690B8803EB43038D6805FAA9
:1051D00003F313432361BEE70C2B16D805682A6B33
:1051E00003EB8303233B1F2404FA03F322EA0303A4
:1051F0002B6305682A6B4B6803EB8303233B0C8806
:1052000004FA03F313432B63C0E70568EA6A03EB70
:105210008303413B1F2404FA03F322EA0303EB62F6
:105220000568EA6A4B6803EB8303413B0C8804FA88
:1052300003F31343EB62A9E70B68122BAAD1164ABA
:10524000536843F480035360A4E70B68103B012BC1
:10525000A4D8114A536843F4000353600B68102B21
:105260009CD10E4B1B6802F1467202F52E3202F2FF
:105270008332A2FB03239B0C03EB83035B000193AC
:1052800002E0019B013B0193019B002BF9D185E7D3
:10529000022087E700200140002301400800002091
:1052A00070470000074AD36823F4E0631B041B0C1B
:1052B000000200F4E060034343F0BF6343F40033B3
:1052C000D360704700ED00E000B5194BDB68C3F315
:1052D0000223C3F1070CBCF1040F28BF4FF0040CEC
:1052E00003F1040EBEF1060F18D9033B4FF0FF3E49
:1052F0000EFA0CFC21EA0C0199400EFA03F322EAA3
:105300000303194300280BDB0901C9B200F1604017
:1053100000F5614080F800135DF804FB0023E5E729
:1053200000F00F000901C9B2024B1954F4E700BFA5
:1053300000ED00E014ED00E0002807DB00F01F02A4
:10534000400901239340024A42F82030704700BFD1
:1053500000E100E00138B0F1807F0BD24FF0E02394
:105360005861054AF02182F8231000209861072235
:105370001A6170470120704700ED00E070B110B570
:105380000446037933B102232371002020610123F5
:10539000237110BD4371FBF793FFF4E701207047C1
:1053A00070B504460D461146049A4079012866D02E
:1053B0000120607102202071002D34D1A068314E8F
:1053C000C663A068304E0664A068304EC664266886
:1053D000306840F480503060042A1ED0082A1FD064
:1053E000C2B12A46002D3CD12668306840F40050F6
:1053F0003060A06800F0D6F900236371002839D12D
:105400002268136805F01005012101FA05F51D4316
:10541000156070BD22680832E4E722680C32E1E7CB
:1054200022681032DEE7E068194EC663E068194E64
:105430000664E068184EC6642668306840F0805004
:105440003060042A07D0082A08D00AB10022C9E730
:1054500022681432C6E722681832C3E722681C3279
:10546000C0E72668306840F000503060E06800F027
:1054700099F9C1E7236943F004032361C9E70220D6
:10548000C7E700BF9F540008B1540008BD5400088E
:10549000A5550008B5550008BF550008704710B560
:1054A000846B2046FFF7FAFF0123237110BD70477C
:1054B00008B5806BFFF7FBFF08BD704710B5846B24
:1054C000236943F0040323612046FFF7F6FF01231D
:1054D000237110BD704710B5044603681A6812F4B2
:1054E000005F03D05A6B12F4005F09D123681A6879
:1054F00012F0005F03D05A6B12F0005F11D110BDA3
:1055000004220271026942F0010202614FF400526A
:105510005A630268136823F480531360FFF7DAFFBD
:10552000E4E704222271226942F0020222614FF074
:1055300000525A632268136823F080531360204698
:1055400000F02FF8DBE74379012B25D010B54FF0A1
:10555000010E80F805E0022303710468236802F05D
:10556000100240F6FE7C0CFA02FC23EA0C0C0B68DD
:1055700049680B43934043EA0C03236004682368A3
:10558000C02101FA02F223EA0202226080F804E05C
:1055900000234371184610BD0220704770477047C2
:1055A0007047704710B5846B2046FFF7F7FF012363
:1055B000237110BD08B5806BFFF7F1FF08BD10B572
:1055C000846B236943F0040323612046FFF7E8FF5F
:1055D0000123237110BD30B405682C6824F48024A5
:1055E0002C60046863608368402B05D00368996071
:1055F0000368DA6030BC704703689A600368D9605A
:10560000F8E7000010B40368D9B210390C4AA2FBC5
:10561000014212090B4CA25CC2655F2909D923F42F
:105620007F7323F0030304338365806D5DF8044BBF
:10563000704723F47F7323F003038365F5E700BF0E
:10564000ABAAAAAA5C320108836A826992B9012BCB
:105650000AD0022B02D00BB100207047C36A13F0AE
:10566000807F28D100207047C36AB3F1C07F24D067
:1056700000207047B2F5005F09D0022B25D9032B1B
:1056800025D1C36A13F0807F23D100207047032BFC
:1056900003D8DFE803F01404140A00207047C36A3B
:1056A00013F0807F0DD100207047C36AB3F1C07F33
:1056B00009D0002070470120704701207047012069
:1056C000704701207047012070470120704700207B
:1056D000704701207047000070B50446FFF7E6FAF6
:1056E000002C5BD00546022384F83530002384F873
:1056F00034302268136823F00103136023681A68AA
:1057000012F0010F0AD0FFF7D1FA431B052BF5D990
:1057100020236365032084F8350070BD1A68204893
:1057200010406168A2680A43E1680A4321690A439C
:1057300061690A43A1690A43E1690A43216A0A438C
:105740000243616A04291ED01A602668756925F033
:105750000705636A1D43042B07D1A36A1D43E36A4F
:105760001BB12046FFF770FF90B975612046FFF727
:1057700049FFE26D3F239340836000206065012371
:1057800084F83530C9E7E16A206B01430A43DBE75F
:1057900040236365012084F83500BEE70120BCE7A3
:1057A0003F8010F038B50446856D90F8340001282C
:1057B0002BD0012084F8340094F83500C0B20128C1
:1057C00004D0002384F83430022038BD022084F84D
:1057D0003500002060652046FFF7FDFEE26D3F23A7
:1057E0009340AB602268136843F016031360236C88
:1057F00023B12268136843F008031360226813681A
:1058000043F0010313600020DFE70220DDE7000022
:10581000F0B583B0044600230193724B1D68724BB0
:10582000A3FB0535AD0A876D3E68C26D0823934022
:10583000334210D003681A6812F0040F0BD01A68B4
:1058400022F004021A60C26D08239340BB60436DCE
:1058500043F001034365E26D01239340334209D0D5
:105860002268526912F0800F04D0BB60636D43F070
:1058700002036365E26D04239340334209D022683A
:10588000126812F0020F04D0BB60636D43F0040392
:105890006365E26D10239340334224D0226812687E
:1058A00012F0080F1FD0BB6023681A6812F4802F13
:1058B0000DD01B6813F4002F04D1236C9BB120463C
:1058C000984710E0A36C73B1204698470BE01A6824
:1058D00012F4807F03D11A6822F008021A60236C48
:1058E0000BB120469847E26D20239340334255D0B8
:1058F0002268126812F0100F50D0BB6094F8353057
:10590000DBB2052B0ED023681A6812F4802F33D037
:105910001B6813F4002F2AD1636C002B3ED0204665
:1059200098473BE02268136823F01603136022684F
:10593000536923F080035361236CA3B12268136879
:1059400023F008031360E26D3F239340BB60012303
:1059500084F83530002384F83430236D002B3FD099
:10596000204698473CE0A36C002BE7D1EBE7E36BC4
:10597000A3B12046984711E01A6812F4807F09D13C
:105980001A6822F010021A60012384F835300023CF
:1059900084F83430E36B0BB120469847636DFBB15C
:1059A000636D13F0010F17D0052384F8353022689A
:1059B000136823F001031360019B01330193AB4291
:1059C00004D823681B6813F0010FF5D1012384F874
:1059D0003530002384F83430E36C0BB1204698470F
:1059E00003B0F0BD08000020B5814E1B00230F2B33
:1059F00000F2E48070B582B060E085685E00032448
:105A0000B44025EA0405CC68B4402C438460456862
:105A100025EA02054C68C4F300129A402A4342600A
:105A20005AE0DC08083450F8246003F007029500BF
:105A30000F22AA4026EA020E0A69AA4042EA0E0292
:105A400040F824205CE0072200E0002202FA0EF277
:105A50002A4302345A4D45F824205A4A94686FEA82
:105A60000C0224EA0C054E6816F4801F01D04CEAA3
:105A70000405544CA560E46802EA04054E6816F477
:105A8000001F01D04CEA04054E4CE560646802EA50
:105A900004054E6816F4003F01D04CEA0405494C59
:105AA0006560246822404D6815F4803F01D04CEABF
:105AB0000402444C226001330F2B7DD801229A400E
:105AC0000C6804EA020C32EA0404F4D14C6804F0D5
:105AD0000304013C012C90D94A6802F00302032A16
:105AE00009D0C4685D000322AA4024EA02048A683F
:105AF000AA402243C2604A6802F00302022A90D000
:105B000004684FEA430E032202FA0EF224EA02046A
